:100000000C9440030C9478030C9478030C947803BC
:100010000C9478030C9478030C9478030C94780374
:100020000C9478030C9478030C9451270C94252895
:100030000C9422220C9478030C9478030C9478038B
:100040000C9478030C9478030C9478030C94780344
:100050000C9478030C94A9220C9478030C947803E4
:100060000C9478030C9478030C9478030C94780324
:100070000C9478030C9478030C9478030C94780314
:100080000C9478030C9478030C9478030C94780304
:100090000C9478030C9478030C9478030C947803F4
:1000A0000C9478030C9478030C94780329001E00B8
:1000B0001F0020002100220023002400250026002C
:1000C00027002D002E0000002A002B000000140045
:1000D0001A000800150017001C0018000C00120080
:1000E00013002F0030003200015100000400160000
:1000F000070009000A000B000D000E000F0033007E
:10010000340028000000E10064001D001B00060010
:1001100019000500110010003600370038000000FB
:10012000E5000000E000E3000000E2000000000045
:100130002C00000000000000E60003530000025104
:10014000E40035003A003B003C003D003E003F002B
:1001500040004100420043004400450000004C00C4
:100160000100000001000100010001000100010088
:1001700001000100010046004A004B004E00010052
:1001800000000100010001000100010050005100C9
:1001900052004F0001004D0001000000010001006D
:1001A0000100010001000100010001000100010047
:1001B000010001000000010000000100010000003A
:1001C000010000000000010000000000000001002C
:1001D0000100000001000100005C000000000000C0
:1001E000000000000000000000000000000000000F
:1001F000000000000000C35C0000000000000000E0
:100200000000000000000000000000000000AB0043
:10021000A900AA0039000000000000000000000052
:10022000000000000000000000000000AC00AE0074
:1002300000000000000000000000000000000000BE
:1002400000000000000000000000000000000000AE
:10025000000000000000000000000000000000009E
:1002600000000000510552050000010000002900B7
:100270001E001F0020002100220023002400250072
:10028000260027002D002E0000002A002B00000071
:1002900014001A000800150017001C0018000C00BC
:1002A00012001300520030004F003900000004001B
:1002B0001600070009000A000B000D000E000F00D9
:1002C0005000510028000000E10064001D001B00E8
:1002D00006001900050011001000360037002D003F
:1002E0000000E5000000E000E3000000E200000084
:1002F00000002C00000000000000E60001000000EB
:100300006500E40000047F3F1F64321464321478F7
:100310003C1E1E140A052223252628292A2C2D2FAF
:100320003032333536383A3B3D3E4042434547490B
:100330004A4C4E5051535557595A5C5E6062646640
:1003400068696B6D6F71737577797B7D7F8183854C
:1003500087898A8C8E90929496989A9C9E9FA1A34E
:10036000A5A7A8AAACAEAFB1B3B4B6B8B9BBBCBE72
:10037000BFC1C2C3C5C6C7C9CACBCCCDCED0D1D2EE
:10038000D2D3D4D5D6D7D7D8D9D9DADADBDBDBDCF0
:10039000DCDCDCDCDDDDDDDDDCDCDCDCDCDBDBDB9C
:1003A000DADAD9D9D8D7D7D6D5D4D3D2D2D1D0CEFC
:1003B000CDCCCBCAC9C7C6C5C3C2C1BFBEBCBBB901
:1003C000B8B6B4B3B1AFAEACAAA8A7A5A3A19F9E7F
:1003D0009C9A98969492908E8C8A89878583817F47
:1003E0007D7B79777573716F6D6B69686664626028
:1003F0005E5C5A5957555351504E4C4A49474543F4
:1004000042403E3D3B3A3836353332302F2D2C2A90
:10041000292826252322FFAA7F554000010101013A
:1004200001010101010202020202020202020303AF
:10043000030303030303040404040404040505057F
:100440000505060606060607070707070808080841
:10045000090909090A0A0A0B0B0B0C0C0C0D0D0DEE
:100460000E0E0E0F0F0F1010111111121213131484
:1004700014151516161717181819191A1A1B1B1CFC
:100480001D1D1E1E1F202021222223242425262656
:10049000272829292A2B2C2D2D2E2F30313232338B
:1004A0003435363738393A3B3C3D3E3F4041424394
:1004B0004445464748494A4C4D4E4F505153545578
:1004C0005658595A5B5D5E5F616264656668696B28
:1004D0006C6D6F7072737577787A7B7D7E808283A6
:1004E0008587888A8C8E8F91939596989A9C9EA0EA
:1004F000A2A3A5A7A9ABADAFB1B3B5B7BABCBEC0F7
:10050000C2C4C6C9CBCDCFD1D4D6D8DBDDDFE2E4BF
:10051000E7E9EBEEF0F3F5F8FAFDFF0A0344005AC1
:100520000036003000000010034B0042004400463B
:100530000061006E00730000000403090409023B1F
:1005400000020100A0FA09040000010301010009F2
:100550002111010001224000070581030800010963
:10056000040100010300000009211101000122B66D
:1005700000070582032000011201000200000008AC
:100580005A44602201000102000105010902A10193
:1005900085020901A1000509190129081500250195
:1005A0009508750181020501093009311581257F02
:1005B00095027508810609381581257F9501750812
:1005C0008106050C0A38021581257F950175088181
:1005D00006C0C005010980A101850319012AB700E1
:1005E000150126B700950175108100C0050C0901A1
:1005F000A101850419012AA002150126A002950176
:1006000075108100C005010906A1018506050719BD
:10061000E029E715002501950875018102050719F4
:100620000029EF1500250195F075018102050819D3
:10063000012905950575019102950175039101C088
:1006400005010906A101050719E029E715002501A3
:10065000950875018102950175088101050719004A
:1006600029FF150026FF0095067508810005081969
:10067000012905950575019102950175039101C048
:1006800011241FBECFEFDAE0DEBFCDBF04B603FEFC
:1006900018C08091370390913803A0913903B0912D
:1006A0003A038730904BA740B04B59F41092370370
:1006B000109238031092390310923A03E0E0F8E305
:1006C000099511E0A0E0B1E0EEE2F6E502C0059088
:1006D0000D92A63CB107D9F723E0A6ECB1E001C02A
:1006E0001D92A733B207E1F70E94C1120C94FF2AB2
:1006F0000C94000081E0089581E008950E947C033D
:10070000089508950E9481030895A5E0B0E0EBE804
:10071000F3E00C946C2A49835A833091CD0189818E
:100720009A81311119C0662399F0222389F00E9421
:100730009909182F682F89819A810E94750969810A
:100740007A81812F0E9422102596E3E00C94882A5A
:100750000E948709182FF3CF0E94990969817A8135
:10076000F1CFFC01262F4081518162817381848108
:100770000E948503089581E00895CF93DF93EC01F3
:1007800060E00E94B103BE010E948203DF91CF911D
:1007900008950E94621108950E94661108950895B7
:1007A0000E9440080E94CF032FEF84E39CE0215079
:1007B00080409040E1F700C0000008950E94D003FF
:1007C0000E94CD2208950E94D0030E94F122089534
:1007D0000F931F93CF93DF938C0161E00E94B103CD
:1007E000EC01B8010E947E03811106C080E0DF9118
:1007F000CF911F910F910895B801CE010E943E1D27
:100800008823A1F3B801CE010E945320882371F3FD
:10081000B801CE010E94571E882341F3B801CE01D2
:100820000E94C51F882311F3B801CE010E948E1BC0
:100830008823E1F2F8018281882361F0CB35FDE560
:10084000DF0701F158F4C115ECE5DE0791F0CF3D6B
:10085000DC4591F0C8010E947A03C9CFCD358DE502
:10086000D80769F090F0C83ADD45A1F70E94E3038C
:10087000BDCF0E94DE03BACF0E94530EF7CF0E9475
:10088000910DE8CF0E949B0DE5CF0E949F0DE2CF16
:100890000E94FE2180E00E94731D0E947A040E9443
:1008A000041A08950E946A1C0E947E040E94DB1AAA
:1008B0000E940322089508950E945B04089581E038
:1008C0000895CF93C82F0E945F04882319F0C1FDBB
:1008D00003C02A9ACF9108952A98FCCF229A2A9A87
:1008E0000895CF93C82F0E945C048C2F0E9461044E
:1008F000CF91089580E00E94710408950E94AF2076
:100900000E9471040895CF930E94AF20C82F809158
:10091000C8018C1779F0C093C8010E948E226093A1
:10092000C9017093CA018093CB019093CC018C2FA5
:100930000E947104CF910895ABE0B0E0E2EAF4E0E8
:100940000C946D2A4F83588769877A878B8761114A
:100950000E94DC0C1E821D8285E0FE013796DE01BE
:10096000119601900D928A95E1F78C819D81892BDA
:1009700061F449815A816B817C818D819E810E94C5
:10098000050C2B96E2E00C94892A89819A818923AF
:100990008F3F79F3CE0101960E94BB038111E9CF0D
:1009A000F0CFFC01808191810E94CB090895CF9303
:1009B000C82F8823C9F08238C9F40E94AF2081FD76
:1009C00013C089E30E94940C0E94FD0C2FEF87EE68
:1009D00093E0215080409040E1F700C0000089E39F
:1009E0000E949C0C0E94FD0CCF9108958338A1F4C5
:1009F0000E94AF2080FDF8CF83E50E94940C0E94F6
:100A0000FD0C2FEF81EE94E0215080409040E1F703
:100A100000C0000083E5E4CF8438A1F40E94AF2039
:100A200082FDE2CF87E40E94940C0E94FD0C2FEF20
:100A300081EE94E0215080409040E1F700C000003A
:100A400087E4CECF8CEF8C0F813A90F46C2F80919D
:100A50000001909101010E942421882329F08C2F0C
:100A60000E949C0C0E94FD0C8C2F0E94940CBACF0B
:100A700080E28C0F883048F4C77081E001C0880F95
:100A8000CA95EAF70E94BF0CADCFEBE5EC0FE3305F
:100A900040F4F0E0E85AFE4F808190E00E94E420AC
:100AA000A3CFE8E5EC0FE73150F4F0E0EE0FFF1FC5
:100AB000E65DFE4F808191810E94FA2095CFCD3E68
:100AC00008F492CF8C2F0E9445130E9418148CCFEB
:100AD000882309F455C0823879F40E94AF2081FF41
:100AE0004FC089E30E94940C0E94FD0C89E30E9490
:100AF0009C0C0E94FD0C0895833859F40E94AF208D
:100B000080FF3EC083E50E94940C0E94FD0C83E5AB
:100B1000EECF843859F40E94AF2082FF31C087E4C1
:100B20000E94940C0E94FD0C87E4E1CF9CEF980F8B
:100B3000913AE8F290E2980F983050F4877091E083
:100B400001C0990F8A95EAF7892F0E94C50CD1CF71
:100B50009BE5980F933028F490E080E00E94E42019
:100B6000089598E5980F973128F490E080E00E946E
:100B7000FA2008958D3E20F00E949F130E941814C1
:100B800008951F93CF93DF93182FEB010E94D70492
:100B9000209739F4812F0E946805DF91CF911F9132
:100BA00008958FE99FE00197F1F700C000002197B9
:100BB000EFCF70E060E0893311F460E570E00E94EF
:100BC000C1050895882321F00E94BF0C0E94FD0CEE
:100BD0000895882321F00E94C50C0E94FD0C089501
:100BE000B0E0A0E0E6EFF5E00C94662A6C01D62FA9
:100BF000C72FFC011281F580F2949FE0F9220E9438
:100C0000B50CE82E8823B9F0E12E1123A1F08C2F2A
:100C1000807F803421F080E28D0F8830D0F0809189
:100C2000DB0282FF16C082E00E94600D0E94B50CBC
:100C300091E0E82EE926BC2EB2948FE0B822FBE0CA
:100C4000FB1508F468C0EB2DF0E0EF5FF44D0C9459
:100C5000262AE12CF0CF0C2F0F70C07F11F00295E7
:100C6000007F112399F0002359F080E28D0F883026
:100C700010F0D11107C0802F0E94BF0C0E94FD0C04
:100C80008D2F41C0802F0E94CF0CF8CF8D2F0E9456
:100C90006805002309F43FC080E28D0F883010F012
:100CA000D11104C0802F0E94C50C03C0802F0E9468
:100CB000D50C0E94FD0C2FC00C2F0F70C07FC032CE
:100CC00011F00295007FDD2381F0D13009F463C07B
:100CD000112309F46DC0FF2009F463C0F60185817A
:100CE00080FFCECF8F7085835CC08091DB0282FD58
:100CF00033C0112359F0002329F0802F0E94BF0C2C
:100D00000E94FD0C80E00E94D70405C080E00E9494
:100D100068050111C7CFEB2DE850FF0B349720F485
:100D20000E94AF200E947104EE2089F00E94B10C55
:100D300080FD0DC0F60112820E94AB0C0E94D30808
:100D4000C6010E9400080E94AB0C0E94E308CDB7C8
:100D5000DEB7E9E00C94822A112389F0F11006C075
:100D60000E94DF0C802B0E94E205D5CF21E0F21219
:100D7000F7CF0E94DF0C802B0E94E60CCCCFF11045
:100D800006C00E94F30C802F0E94E905C4CF31E019
:100D9000F31609F2F6CF112331F085E08F1508F430
:100DA000BACF802FE0CF94E09F1508F4B4CFEBCFFB
:100DB000FF2049F3D93349F4FFEF27EE33E0F15038
:100DC00020403040E1F700C000008D2F0E946805F0
:100DD000A2CF8C2F86958695837069F0813009F0BB
:100DE0009ACF8D2F9C2F9370111102C090E080E05C
:100DF0000E94FA2090CF8D2F9C2F9370111102C06A
:100E000090E080E00E94E42086CF8D2F112329F00E
:100E10000E9445130E9418147ECF0E949F13FACFA0
:100E20008C2F8370A1F5111176CF4D2F42954695E9
:100E30004770440F440F2D2F2F7030E0042E02C056
:100E4000220F331F0A94E2F790E080E0D4FF09C03C
:100E50008FE090E002C0880F991F4A95E2F78095D5
:100E60009095C695C695C370822B932BC23049F0DE
:100E700058F4C13019F00E94A1084DCF0E94980883
:100E80004ACF0E94AA0847CF0E94950844CF869572
:100E9000112311F08C2F8170882309F43CCF4D2F42
:100EA000429546954770440F440F2D2F2F7030E028
:100EB000042E02C0220F331F0A94E2F790E080E074
:100EC000D4FF09C08FE090E002C0880F991F4A95B7
:100ED000E2F780959095C695C695C370822B932BAB
:100EE000C23049F058F4C13019F00E940E0913CFF6
:100EF0000E94050910CF0E9417090DCF0E94B90862
:100F00000ACFCF70112329F08C2F0E94D3088D2F88
:100F10002ACF8D2F0E94E9058C2F0E94E308FBCE7B
:100F2000D23F51F160F4D03FB9F0D13F81F01123AD
:100F300009F449C0F110A4CE8C2F8F7121C0D33F8A
:100F400011F1D43FA1F78091DB0282FD26C08C2FE6
:100F50008F71112311F314C0112349F084E08F1510
:100F600008F4D9CE8C2F8F710E94F508D4CE95E06D
:100F70009F1508F4D0CEF6CF8C2F8F711111CDCFE5
:100F80000E94D308C8CE112329F08C2F8F710E94A4
:100F9000C708C1CE0E94C208BECE112349F0CF714E
:100FA0008C2F0E94D30863E08C2F0E94420DB3CE99
:100FB00081E00E94600DE1E0EF1508F0ACCE82E028
:100FC0000E94600DA8CEF110F5CE8C2F8F71A5CFA9
:100FD0000F931F93CF93DF93EC01688179818A810E
:100FE0000E94D6098C010E9420090E949408B80131
:100FF000CE010E94F005DF91CF911F910F910895CE
:10100000CF93DF93EC018B819C81892B29F0888120
:10101000998189238F3F51F4DF91CF910895CE01BB
:101020000E94E807CE010E94BD03F6CFCE010E94C8
:10103000E8038111F4CF0E94B50C882369F38A81FB
:10104000882351F38091DB0282FFE6CF82E00E9489
:10105000600DE2CF90E080E00E94E42090E080E02C
:101060000E94FA200E94DC0C0E94FD0C0E943414A5
:101070000E94181408950E94A40C0E942A08089542
:101080000E94CC0C0E943B08089592959F70963068
:1010900091F058F4925F9F70923058F4803F19F0AD
:1010A00030F4883E30F481E008959A5FF4CF843FB5
:1010B000D1F380E00895883EB0F3813FD1F7F3CFBC
:1010C000FC0183819481892B29F08081918189237E
:1010D0008F3F11F480E00895808191810E94CB09B7
:1010E0000E9445080895A5E0B0E0E9E7F8E00C9417
:1010F0006D2A2596E2E00C94892AA6E0B0E0E3E8A8
:10110000F8E00C946D2A2696E2E00C94892A089562
:101110000E94870808950E9488089093F90180939F
:10112000F8010E942A08089508950E948B080895E6
:101130002091F8013091F901822B932B0E948B08AA
:1011400008952091F8013091F901822393230E94A0
:101150008B0808952091F8013091F9018227932797
:101160000E948B0808950E94870808950E94B30882
:1011700008950E94B6089093F7018093F6010E94AB
:101180002A08089590E080E00E94B908089521E0BF
:1011900030E0A90102C0440F551F8A95E2F7CA0149
:1011A0000E94B908089521E030E002C0220F331FE9
:1011B0008A95E2F78091F6019091F701822B932BAB
:1011C0000E94B908089521E030E002C0220F331FC9
:1011D0008A95E2F7209530958091F6019091F7017C
:1011E000822393230E94B908089521E030E002C0D1
:1011F000220F331F8A95E2F78091F6019091F70153
:10120000822793270E94B90808952091F601309112
:10121000F701822B932B0E94B90808952091F601C3
:101220003091F701822393230E94B90808952091F9
:10123000F6013091F701822793270E94B90808959B
:101240000895262F277091E001C0990F2A95EAF79B
:1012500023E0769567952A95E1F7660F771F660F6D
:10126000771FFA01E60FF71F50E040E0682F70E0AB
:101270008191DF0111979B01042E02C036952795BD
:101280000A94E2F7217021952827292328272C93F7
:101290004F5F5F4F4430510559F70895A82FA7704D
:1012A00023E0969587952A95E1F7880F991F880F77
:1012B000991FFB01E80FF91F50E040E080E0219109
:1012C00030E00A2E02C0369527950A94E2F7217085
:1012D0003327042E01C0220F0A94EAF7822B4F5FB6
:1012E0005F4F4430510559F70895262F953070F41B
:1012F0008F3060F4682F70E08FE0989F600D711D53
:1013000011244EEC51E0822F0E9421090895292FCB
:10131000953068F48F3058F490E06EEC71E03FE067
:10132000239F800D911D11240E944E09089580E095
:101330000895B0E0A0E0EFE9F9E00C94662A7C01A2
:101340000091F6011091F7018091F8019091F90157
:10135000082B192BCFE0D0E0CC24C394D12CBC2E89
:10136000C6010C2E02C0880F991F0A94E2F7802351
:101370009123892B49F4219790F7B12C8B2DCDB770
:10138000DEB7E9E00C94822AB7018C2F0E943D1051
:10139000019789F3F3CFCF93DF93EC010E94990972
:1013A000BE010E943D10DF91CF9108951F93CF930E
:1013B000DF93EB019091CD01992339F0CB010E948D
:1013C000CB09DF91CF911F910895882369F0CB015C
:1013D0000E949909182F682FCE010E947509BE013D
:1013E000812F0E943D10EDCFCB010E948709182F5D
:1013F000F6CF1F93CF93DF93C091FA0116E080914F
:10140000FB018C1304C0DF91CF911F910895D0E0B0
:101410001C9FF0011D9FF00D1124E450FE4F4081F0
:10142000518162817381848195810E947D0821961A
:10143000C770E5CF40912C0250912D0260912E0291
:1014400070912F0280913002909131020E947D08AC
:1014500008951F93CF93DF9380913102807F09F02D
:1014600049C080912E02882309F444C08091FA017A
:10147000C091FB0160912C0270912D02A0912F026E
:10148000B0913002D62FD72316E0C81799F190E01B
:10149000109711F0DF3F19F401968770F6CF189F6F
:1014A0009001199F300D1124F901E450FE4F418144
:1014B0004713F2CF40814613EFCF42814111ECCF69
:1014C000438154814A1B5B0B483C510528F78091AE
:1014D00031028F70806180933102F901EF5FFD4F1F
:1014E00080818F70806180838CE292E00E9400088E
:1014F0000E94F909DF91CF911F910895A1E1B0E019
:10150000E4E8FAE00C94652A8C0185E0F801DE013C
:101510001D9601900D928A95E1F7F801E2808CE228
:10152000C82E82E0D82E60912F0270913002611592
:10153000710509F44EC190912C0220912D02892F42
:1015400082238F3F09F445C140815181A380B4803B
:10155000F0902E02F501E61BF70BFF2009F4EAC01C
:1015600080913102382F307FE83CF10508F0A3C0AC
:1015700031116DC0FE2C251316C0941314C0E11058
:1015800012C08F708061809331020E941A0AC601D6
:101590000E94000880913102F80185838F2D6196A9
:1015A000EAE00C94812AA114B10429F0842F852348
:1015B0008F3F09F027C180E0F82FF170DF2E80FF08
:1015C0003CC08091FA012091FB0136E0821315C0E6
:1015D0004D875E878D859E850E94CB09292F229598
:1015E0002F702230F0F0243018F59F70F1F0F801E0
:1015F0009581907FD1F4D12C1EC090E0389FF001EE
:10160000399FF00D1124E450FE4F6181651306C02F
:101610006081641303C06281E6120FC00196877077
:10162000D5CF9F7011F0882331F3805E883018F396
:10163000C8010E940008FD2CB1CFEE2009F4AECF06
:1016400080913102816080933102F12CA7CF251364
:1016500006C0941304C0F801EE2009F487C0C80145
:101660000E946008882319F1EE2009F1809131026F
:10167000803270F020912C0230912D0238872F8318
:101680001986BB86AA868C87CE0107960E94000821
:1016900086E0F801ACE2B2E001900D928A95E1F7A4
:1016A0000E94290A0E941A0AFF24F39477CFC801E6
:1016B0000E940008F9CF311113C07A2DB98AA88A87
:1016C0006E2D89890E9473088CE292E00E940008C6
:1016D00086E0F60111928A95E9F70E941A0AB5CFC1
:1016E00025130FC094130DC0E1100BC0F8018583C2
:1016F000C8010E94000886E0F60111928A95E9F778
:101700004DCFC8010E946008882389F2EE2079F24B
:1017100080913102803208F4BBCF20912C023091AD
:101720002D023A8329831B82BD82AC828E83CE0137
:101730000196ACCFE83CF10508F03EC0FE2CEE204F
:1017400009F4B5CF25132AC0941328C08091310223
:1017500080FD1BC0982F907FC1F0F8018583903FDA
:1017600031F0982F907F905F8F70892B8583C8010F
:101770000E94000886E0F801ACE2B2E001900D9210
:101780008A95E1F70E941A0A09CF86E0F801ACE2D7
:10179000B2E001900D928A95E1F700CFC8010E9456
:1017A0006008811175CF8091310281608093310290
:1017B000C8010E940008F2CE7A2DB98AA88A6E2D3F
:1017C00089890E94730886E0F60111928A95E9F7EB
:1017D000D9CFEE2009F46BCFC8010E946008F82E23
:1017E000882309F464CF86E0F801ACE2B2E001900E
:1017F0000D928A95E1F78CE292E00E94D1040E945A
:10180000290AC0CF81E08E25D7CEACE0B0E0EBE076
:10181000FCE00C946C2A4F83588769877A878B8702
:101820009C87CE0107960E947E0A882369F08A85EC
:101830009B85892B39F04F815885842F85238F3FD5
:1018400009F06BC016E05FC086E0FE013796DE014E
:10185000119601900D928A95E1F78A859B85892BD7
:1018600089F388859F8189238F3F61F32091FB0154
:1018700030E0C9010196877099274091FA01481715
:10188000190671F40E9440081092FB011092FA01AF
:1018900086E0ECE2F2E0DF011D928A95E9F7D2CF13
:1018A00096E0929FD001939FB00D1124A450BE4F9B
:1018B000FE01319601900D929A95E1F78093FB011C
:1018C0000E94F909BFCF819FC001112484509E4F0F
:1018D0000E947E0A8823E9F0E091FA011E9FF00140
:1018E0001124E450FE4F40815181628173818481D3
:1018F00095810E947D088091FA0190E001968770A1
:1019000099278093FA018091FA019091FB01891344
:10191000DACF2C96E3E00C94882A69857A858B854A
:101920009C850E947D088ECF682F80910001909148
:1019300001010E94A4210895682F809100019091D7
:1019400001010E94B221089580910001909101014E
:101950000E94C021089580915202859585958595B4
:101960000895809152028770089590915202977065
:1019700081E009F480E008958091750208959091C6
:101980007502892B80937502089580959091750258
:10199000982390937502089510927502089590917E
:1019A0007402892B8093740208958095909174023B
:1019B0009823909374020895109274020895809170
:1019C0005302089508950E94E20C08959091DB025D
:1019D00092FF08C090915302981721F08093530210
:1019E0000E94E30C089580915302882329F01092FD
:1019F000530280E00E94E30C0895CF93DF93E091BF
:101A00000001F0910101809175028083E091000155
:101A1000F0910101808190917402892B80839091D3
:101A20005302992381F0E0910001F091010180813E
:101A3000892B808380910001909101010E941021E7
:101A400081110E94F30CC0910001D091010140E28C
:101A500050E062E372E0CE010E94A12A892B59F086
:101A600080E2FE01A2E3B2E001900D928A95E1F7D7
:101A7000CE010E94BC20DF91CF91089508950E946D
:101A80003E0D08959091DB0292FF11C098E0899F6E
:101A900090011124622B609352020E94D30880911E
:101AA00052028595859585950E943F0D08950E9467
:101AB000D30808951092520280E00E943F0D0895CD
:101AC000909152028095892380935202282F27708B
:101AD00091F4282F082E000C330B9217130659F09F
:101AE0009091DB0292FF07C08595859585950E94B0
:101AF000E3080E945A0D08959091DB0292FB222781
:101B000020F9281769F080FB92F99093DB0280910D
:101B1000DA029091DB020E94CD0D82E00E94600DFE
:101B200008958091DB0282FB882780F991E0892764
:101B30000E947C0D089581E00E947C0D089580E054
:101B40000E947C0D08956FEF7FEF90E080E00E948F
:101B5000E92A089590E080E00E94C52A21E0883EAD
:101B60009E4F09F020E0822F089582E090E00E94CD
:101B7000B72A089583E090E00E94B72A0895CF9392
:101B800084E090E00E94B72AC82F82E290E00E9491
:101B9000B72A982F8C2FCF910895CF93C92F682FF4
:101BA00084E090E00E94CB2A6C2F82E290E00E94B9
:101BB000CB2ACF910895AB01BC018FE090E00E9449
:101BC000DD2A0895AB01BC0183E190E00E94DD2A8B
:101BD000089560E070E0CB010E94E20D089560E09E
:101BE00070E0CB010E94DB0D0E94E90D089568EEC4
:101BF0007EEF90E080E00E94E92A60E082E090E0E1
:101C00000E94CB2A60E083E090E00E94CB2A1092F1
:101C1000F9011092F80160E084E090E00E94CB2A84
:101C200064E082E290E00E94CB2A60E085E090E0F0
:101C30000E94CB2A60E086E090E00E94CB2A6FEF02
:101C400087E090E00E94CB2A40E050E0BA0188E0B3
:101C500090E00E94DD2A60E08DE090E00E94CB2AB7
:101C600040E050E0BA0188E190E00E94DD2A60E0A7
:101C700087E190E00E94CB2A40E050E0BA018CE17D
:101C800090E00E94DD2A70E060E080E290E00E9437
:101C9000E92A40E050E0BA0188E190E00E94DD2AA4
:101CA0000E94EF0D08950E94F70D0895682F8EE0B1
:101CB00090E00E94CB2A08950E948E2260938602B3
:101CC00070938702809388029093890260938202C6
:101CD00070938302809384029093850208950895FF
:101CE00008950E94700E089508950E94740E08953C
:101CF00087E291E10E94A5200E946F0E0E94710E62
:101D0000089581E008950E94810E08950895089530
:101D10000E94860E0E94870E08950E9443110E9421
:101D20006E040E941A1E08950E9479220E942212B7
:101D30000E948D0E0E946A1C0E949F1A0E94750EBE
:101D40000895AAE0B0E0E7EAFEE00C94622A0E945F
:101D5000381228E7822E22E0922E640110E0F6016C
:101D6000E190F1906F01812F0E9469111F5F153082
:101D700009F449C0E816F90691F380918A0281FDC1
:101D80000E9472110E94830E782E10E0812F0E9413
:101D900069117C01F401A190B1904F018A159B0556
:101DA00061F100E0CC24C394D12CAE24BF24C50142
:101DB0008C219D21892BC1F07720B1F00E831F83E8
:101DC00021E0C7018C219D21892B09F420E028877F
:101DD0000E9482228160782F9A8789874E815F8155
:101DE00068858A850E949C040F5FCC0CDD1C0F3037
:101DF000F1F6F4013297F182E0821F5F153031F67F
:101E00000E945C0E22C0E816F90609F0B6CF0E94C7
:101E100082228C018091760290917702081719072F
:101E2000A1F08FEF89838A831B820E9482228160C6
:101E3000782F9D838C8349815A816B818D810E948B
:101E40009C0410937702009376020E94E51A0E9488
:101E5000191E0E9456140E9483042A96EDE00C94E9
:101E60007E2ACF93DF930E944210EC01811521E579
:101E7000920708F042C0811530E5930708F09FC033
:101E8000883E910530F5803E910508F094C0883A6F
:101E9000910588F4853A910508F086C08130910556
:101EA00009F489C0009709F486C0049708F083C03C
:101EB000D0E0C0E080C08F3B9105D0F7C85AD0E099
:101EC000CC0FDD1FC55ADE4F0990D881C02DD464D8
:101ED00072C0811540E2940750F4C11581E0D80723
:101EE00008F069C0CD3ED10518F3D06564C08115F6
:101EF0009044F0F2DF70D06A5EC0811535E593073B
:101F000018F5811544E5940708F085C0C11583E5EF
:101F1000D80708F06CC0C11522E5D20708F462C0EA
:101F2000CE018370992721E030E002C0220F331FD9
:101F30008A95E2F7C695C69580E2C89FE001112414
:101F4000C22BD32BDC6837C0811539E59307A8F481
:101F5000811548E5940708F063C0C11586E5D807E8
:101F600008F0A6CF8C2F0E94E410C82FD0E0DC2F01
:101F7000CC27CC27DF71D0621EC081152AE59207DD
:101F800008F453C090568115904208F091CF8D2FE0
:101F90008F710E94E41090E0982F882788279F7106
:101FA0009C012C2BE901E7CFC55AD0E0C757DE4F83
:101FB000C881D0E0D064CE01DF91CF9108958370C5
:101FC000992721E030E002C0220F331F8A95E2F703
:101FD000C695C69540E2C49FE0011124C22BD32BC5
:101FE000DD68E9CFDC2FCC27C16FD06AE4CFCE010A
:101FF0008370992721E030E002C0220F331F8A95B9
:10200000E2F7C695C69540E2C49FE0011124C22BB9
:10201000D32BDA68D0CFD82FCC27C46FD06ACBCFE0
:10202000D82FCC27C06FD06AC6CF8F700E94E41023
:1020300034E0D695C7953A95E1F7CF709C2FEC0127
:10204000D069B9CF972F7530A8F46F3098F470E04D
:102050002FE0929F600D711D1124FB019BE4899F6D
:10206000E00DF11D1124EE0FFF1FE455FF4F859188
:102070009491089580E090E008950E9422100E94BB
:10208000310F089582389105B9F1B0F4813391058B
:1020900009F47DC048F48932910509F46DC08A3293
:1020A000910509F47BC008958533910509F45FC05B
:1020B0008933910509F10895833E9105D9F138F4EA
:1020C000803E910529F1823E910579F10895863E81
:1020D0009105D9F1873E910509F43EC0843E9105F2
:1020E00041F52091DB0221FF24C08091DA0284FDBA
:1020F00019C087EE90E008952091DA02237009F06C
:102100005AC02091DB0223FF14C089E290E00895B9
:102110002091DA0220FD38C03091DB0230FF09C087
:1021200024FF43C090E080E008952091DA0222FD70
:10213000F7CF08952091DA0222FD3AC03091DB02F8
:1021400030FD39C024FFF5CFEDCF2091DA0223FF17
:10215000F0CF24FDE7CFCDCF2091DA0223FD2EC0B2
:102160003091DB0231FFEECF84EE90E008952091B4
:10217000DA0225FFDECFC9CF2091DA0225FD21C08A
:102180002091DB0223FFD5CF89E390E0D2CF2091CD
:10219000DA0226FFCECF8AE290E008952091DA029B
:1021A00026FFC7CF81E390E0089583EE90E0089585
:1021B00082EE90E0089580EE90E0089586EE90E043
:1021C000089585E390E008959091DA0292FF06C0A9
:1021D000282F28712830F9F4877F846093FF06C088
:1021E000282F28712831F1F4877E84612091DB0249
:1021F00020FF06C0382F38713830D9F4877F8160CE
:1022000021FF06C0282F28712831D1F4877E8161F3
:1022100094FD877E0895282F24712430F9F68B7F52
:102220008860DCCF282F2471243101F78B7E8861F0
:10223000DDCF382F3171313019F78E7F8860E0CFD4
:10224000282F2171213121F78E7E8861E1CF80E036
:1022500008950E94A30D08950E9438128FE39CE90F
:102260000197F1F700C000000E94381280E00E9440
:10227000691180FF04C00E9429110E94CD22089597
:102280000E942C1108950E94AA0D811102C00E9483
:10229000530E0E94B50D80938A020E94BF0D909349
:1022A000DB028093DA020E9440110E94BA0D90E096
:1022B0000E9495088091F6019091F7010E94B6085E
:1022C000089508950E946111089508950E9465116E
:1022D0000895E82FF0E0EE0FFF1FEA51FD4F8081D7
:1022E00091810895089580EA8A95F1F7089500C0D4
:1022F00008950E9473110895F894E82FE295EF7005
:10230000F0E031A1282F2F7081E090E001C0880F0C
:102310002A95EAF7982F9095932391A392A1892B60
:1023200082A3789408950F931F93CF93DF93CBE903
:10233000D1E089918F3F11F00E947C1181E0C03A79
:10234000D807B9F7CCE8D1E00BE911E089918F3FCC
:1023500011F00E947C110C171D07C1F7DF91CF917E
:102360001F910F910895AF92BF92DF92EF92FF926B
:102370000F931F93CF93DF938C01D62EC62FD0E0FF
:10238000CE0185569E4F7C01FC0120812F3F09F430
:102390004CC0F894E22FE295EF70F0E031A12F707D
:1023A00081E090E001C0880F2A95EAF7932F982BDF
:1023B00091A392A18095892382A378940E9477119A
:1023C000ECE8F1E041E050E0B12CA12C21912F3F4D
:1023D000B1F1A22FA295AF70B0E090968C9190E0F1
:1023E0002F7002C0959587952A95E2F780FD27C04A
:1023F000CA01A82AB92A440F551F81E0EB39F80712
:1024000029F7F70180818F3F11F00E947C1161E074
:10241000A114B10409F460E08D2D0E947911CC0F54
:10242000DD1FC00FD11FB982A882DF91CF911F910C
:102430000F91FF90EF90DF90BF90AF90089590E0E4
:1024400080E0D7CF0E9493118AE0E6EEF2E0DF0150
:10245000982F1D929A95E9F7ECEDF2E0DF011D92BD
:102460008A95E9F785E00E9473120E94C9030895D6
:10247000AAE0B0E0EEE3F2E10C946A2A8E010F5F6D
:102480001F4F8AE0F80111928A95E9F7F12C6F2D20
:10249000C8010E94B311F394F5E0FF12F8CF4AE0AF
:1024A00050E0B8018CED92E00E94A12A21E0009753
:1024B00009F420E0892B41F08AE0F801ACEDB2E0AC
:1024C00001900D928A95E1F745E066EE72E08CEDA1
:1024D00092E00E947412182F0E94CC03812F2A963A
:1024E000E5E00C94862A0895CF92DF92EF92FF9256
:1024F0001F93CF93DF936C017B01C42F222349F0FC
:1025000081E080938D020E94822290938C028093BE
:102510008B0210918D0211110AC010E0812FDF9102
:10252000CF911F91FF90EF90DF90CF900895809111
:102530008B0290918C020E949A22059770F3D0E052
:10254000CC0FDD1FAE01B601C7010E94A12A892B65
:1025500041F0AE01B601C7010E94AE2A10928D0271
:10256000DDCF10E0FBCF0E94A7240E94940E0E94B2
:10257000B42408950E94B9240E94A10E0E94D3247D
:1025800008950E941B220E948D240E94780E0E94B2
:10259000B3120E94BA120E94880EFBCF809194025F
:1025A00080FF0DC06091070170E0660F771F6038F3
:1025B000710570F56115710569F1862F089581FF28
:1025C00007C06091070184E0689FB0011124EFCF3C
:1025D0006091070182FD0AC0809193028823A9F0CF
:1025E0002091060160910701821710F088E0ECCF7E
:1025F000869FC001112433E0880F991F3A95E1F7B7
:10260000622F70E00E94F029D2CF68E070E0D5CF51
:102610008FE7089581E008958091940280FF0CC0B7
:102620006091030170E075956795759567956115E3
:10263000710549F1862F089581FF06C0609103015D
:1026400070E075956795F3CF6091030182FD0BC033
:10265000909192029923A1F060910201809103016F
:10266000961738F0682F70E06038710500F38FE737
:102670000895899FC001112470E00E94F029F4CFD1
:1026800061E070E0D7CF81E008958D3E31F40E9483
:10269000CE1281958093980208958E3E19F40E947F
:1026A000CE12F8CF8F3E31F40E94CE1281958093E6
:1026B00097020895803F19F40E94CE12F8CF893F07
:1026C00029F40E940C138093990208958A3F21F403
:1026D0000E940C138195F7CF8B3F31F40E940C13AD
:1026E000819580939A0208958C3F19F40E940C13EF
:1026F000F8CF9FE0980F983070F4815F990B21E03C
:1027000030E001C0220F8A95EAF780919602822B71
:102710008093960208958D3F31F4809194028160F8
:102720008093940208958E3F21F4809194028260F8
:10273000F7CF8F3FB9F7809194028460F1CF409139
:1027400097028D3E59F48091980287FF0DC0109238
:10275000980241110BC01092930208C08E3E81F482
:102760008091980218169CF3442381F0809199027D
:1027700090919A02892B09F05AC010929202089502
:102780008F3E49F447FFF0CF109297028091980254
:102790008111ECCFE0CF803F19F41416ACF3E4CFF5
:1027A00090919902893F29F41916F4F61092990232
:1027B000DBCF8A3F19F497FFD7CFF8CF90919A02D9
:1027C0008B3F29F497FFD0CF10929A02CDCF8C3F48
:1027D00019F41916CCF3C8CF9FE0980F983090F4F5
:1027E000815F990B21E030E0B90102C0660F771FCD
:1027F0008A95E2F7CB018095909196028923809388
:102800009602B2CF8D3F31F4809194028E7F8093F7
:102810009402AACF8E3F21F4809194028D7FF7CF4E
:102820008F3F09F0A1CF809194028B7FF0CF089564
:102830000E9482229C019091970280919802982B8D
:1028400021F030939102209390029091990280910F
:102850009A02982B21F030938F0220938E0285E903
:1028600092E00E94D620089586E0E5E9F2E0DF01DB
:102870001D928A95E9F7109293021092920210929B
:1028800094020895FC01828181110EC0838181111F
:102890000BC08481811108C091E08581811101C044
:1028A00090E0892F8170089581E0FCCFA6E0B0E030
:1028B000ECE5F4E10C946C2A86E0E5E9F2E0DE0157
:1028C000119601900D928A95E1F71092970210925D
:1028D00098021092990210929A028B819C81892B06
:1028E00089F080919002909191020E949A22AC010D
:1028F000909193029923C9F18091080184171506DC
:1029000008F440C08D819E81892B91F080918E02C8
:1029100090918F020E949A22AC0190919202992389
:1029200009F471C0809104018417150608F479C078
:10293000BE016F5F7F4F85E992E00E94D221811135
:1029400005C085E992E00E94421481110E9418148A
:1029500086E0FE013196A5E9B2E001900D928A95DC
:10296000E1F72696E3E00C94882A209109018AE099
:10297000289F900111242417350720F69F5F90931C
:10298000930202C09F3FD1F71B81112359F00E948F
:10299000CE129FEF11160CF491E0899F802D112427
:1029A000809397021C81112359F00E94CE129FEF51
:1029B00011160CF491E0899F802D112480939802C8
:1029C00030919702332309F49DCF2091980222235E
:1029D00009F498CF45EB3403C0011124992359F031
:1029E0009093970245EB240390011124332339F08F
:1029F0003093980287CF81E080939702F3CF81E0F4
:102A0000809398027FCF209105018AE0289F900152
:102A100011242417350708F08BCF9F5F9093920203
:102A200002C09F3FD1F71D81112359F00E940C1362
:102A30009FEF11160CF491E0899F802D1124809353
:102A400099021E81112359F00E940C139FEF111659
:102A50000CF491E0899F802D112480939A0230918B
:102A60009902332309F464CF20919A02222309F4B6
:102A70005FCF45EB3403C0011124992359F09093A3
:102A8000990245EB240390011124332339F030934C
:102A90009A024ECF81E080939902F3CF81E0809338
:102AA0009A0246CFEF92FF920F931F93CF93DF933B
:102AB000EB01E82FD1110EC0442321F0F0E0E55ED8
:102AC000FB4FE4916E2F7E2F8E2FCDB7DEB7E6E061
:102AD0000C94852A0D2F10E0282F30E0442329F094
:102AE000255E3B4FF901249130E0F6E0CF9FC00115
:102AF0001124EFEFF0E0BF010E94DC29AB018C2F25
:102B000090E0880F991FA5E5A49FB001A59F700DC7
:102B10001124861B970B982F990F980FBF01601BEC
:102B2000710B629FD001639FB00D729FB00D112495
:102B30008B2F9D9FB0011124672F7727EF01C61BB4
:102B4000D70BBE01629FE001639FD00D729FD00D35
:102B500011247F01E91AF108E09EB001E19E700D99
:102B6000F09E700D1124672F7727E61BF70BE29F6D
:102B70008001E39F100DF29F100D1124E12F722FA1
:102B80004230510599F048F44115510569F0413042
:102B9000510581F0EB2F8D2F07C04430510569F0AE
:102BA00080F046305105B1F76E2F8FCFE22F7B2F8B
:102BB000812FFACFE22F7D2FF7CFEB2F822F712FAE
:102BC000F3CF7B2F822FED2FEFCF41E00E945215E4
:102BD000089508950E94E5150895CF93DF93762F09
:102BE000E901682F842F0E94EA15798368838A831C
:102BF000DF91CF9108958091F002982F9E7F29F464
:102C0000817082608093F00208958A34E8F38170C5
:102C10008864F8CF88E090E00E94BF2A0895CF92A0
:102C2000DF92EF92FF926B017C010E94FB15B701CE
:102C3000A60188E090E00E94DD2AFF90EF90DF90EF
:102C4000CF900895E0EFF2E083E0808311828FEF70
:102C500082838383148260817181828193810E9447
:102C60000F1608958091F00280FF02C086950895A6
:102C700080E008959091F402933018F49F5F909350
:102C8000F402882351F06091F0027091F10280917A
:102C9000F2029091F3020E940F16089581E00E94C3
:102CA0003A1608959091F402992319F09150909357
:102CB000F402882351F06091F0027091F10280914A
:102CC000F2029091F3020E940F16089581E00E9493
:102CD0005216089570E00E942B1E089560910E0117
:102CE0008091F00280FF0BC080910D0123E0829F54
:102CF000C00111248B509D4F0E946A160895809147
:102D00000F019091100123E0829FF0011124EB50FC
:102D1000FD4F891748F71182108212828F5F339618
:102D2000F8CF9091F00290FF0EC090910F0120918A
:102D3000100133E0939FF0011124EB50FD4F9217E7
:102D400018F00E946E1608958183608342839F5F0E
:102D50003396F5CFA3E0B0E0E0EBF6E10C946D2AFA
:102D60009091F00290FF0AC09E012F5F3F4F0E949A
:102D7000ED154B8169818A810E9491162396E2E0CC
:102D80000C94892ACF93DF93EC01EC81F0E0EA5EAA
:102D9000FC4F4491E0EFF2E0628181810E94AA162B
:102DA0008C818F5F8C83DF91CF910895CF93DF93D8
:102DB000EC01E0EFF2E0438162818C810E94AA166F
:102DC0008C818F5F8C83DF91CF910895A3E0B0E079
:102DD000ECEEF6E10C946B2A8C0180919B02811140
:102DE0000AC09E012F5F3F4F4FEF6FEF0E94ED151E
:102DF0008A8180939B02F8016481613069F080913F
:102E00009B0240E0662361F040E0623011F44091A3
:102E10009B0280E060E004C060919B0240E080E0A3
:102E20000E949116F801848190E0019663E070E0C1
:102E30000E94F02984832396E4E00C94872AA3E07F
:102E4000B0E0E5E2F7E10C94662A082FD62EE42ED6
:102E5000C22E9091F00290FF29C0E92FE695AE2F87
:102E6000B0E0A056BE4F8C918093A7029E7F923017
:102E700009F59E012F5F3F4F802F0E94ED154B817A
:102E800069818A810E9491160093F102D092F20228
:102E9000E092F302CC2051F06091F0027091F102C7
:102EA0008091F2029091F3020E940F162396E9E0BE
:102EB0000C94822A823019F4E090F302E5CF863038
:102EC00019F40091F102E0CF8930D9F38931E1F6AC
:102ED000E9516E2F6170B62EE695F0E0EA5EFB4F89
:102EE0001491F12C60911101F61618F00E946E16E3
:102EF000CBCFF19EC001112470E00E94DC29802F0D
:102F0000B11014C0860F20910F01622F6F0D77272B
:102F1000771F9B01220F331F260F371F2B503D4F6A
:102F20004E2D6D2D0E94ED15F394DCCF861BEBCF5B
:102F3000E0EFF2E09181282F4381628188E0890FE0
:102F40000E941F17089581E00E9498170895E0EFEE
:102F5000F2E09181282F4381628188EF890F0E94DE
:102F60001F17089581E00E94A7170895E0EFF2E08F
:102F7000628128E0620F08F46FEF282F438181817E
:102F80000E941F17089581E00E94B6170895E0EF90
:102F9000F2E0628128E0621B08F460E0282F4381A0
:102FA00081810E941F17089581E00E94C71708952C
:102FB000E0EFF2E0438128E0420F08F44FEF282FC2
:102FC000628181810E941F17089581E00E94D817B5
:102FD0000895E0EFF2E0438128E0421B08F440E06E
:102FE000282F628181810E941F17089581E00E942D
:102FF000E917089520E00E941F170895EF92FF92AD
:103000001F93CF93DF93EC0110E0EE24EA94F12CB0
:1030100060911101161770F00E946E169A818C81D2
:1030200090FF27C08F5F8C83DF91CF911F91FF901E
:10303000EF90089520910F01422F410F5527551F02
:10304000CA019A01220F331F280F391F2B503D4F01
:1030500070E0C7010E94F029962F8C814091F30205
:103060006091F202199F800D11240E94ED151F5FDF
:10307000CFCF8150D8CFB0E0A0E0E1E4F8E10C94EC
:10308000662AFC0182810FEF80FF01E010E0809151
:103090001101181798F00E946E1680919D02013060
:1030A00009F04CC0811102C08091110181508093C0
:1030B0009D02CDB7DEB7E9E00C94822AC0910F01E2
:1030C000C12ED12CCC0DDD2DD11DCE01880F991F25
:1030D000C80FD91FCB50DD4F198218821A8234E0F5
:1030E000E32EF12CB12C80919D028B0D813104F1E6
:1030F0008F70082E000C990BC816D90691F4809198
:10310000F3028E9DA0018F9D500D1124559547957A
:10311000559547959E016091F2028091F1020E94BF
:10312000ED15B00EF1E0EF1AF108E9F61F5FAFCF31
:1031300087FFDFCF90911101890FDBCF90E00196DF
:103140006091110170E00E94F029B1CF0F931F939D
:10315000CF93DF9380910F019091100123E0829F24
:10316000F0011124EB50FD4F891740F1C0E0D3E08E
:1031700060911101C61740F10E946E1620910B015B
:1031800080919C02820F80939C0290910C01920F7F
:1031900090930C01191654F4082E000C990B4091D1
:1031A00011014150550B841795071CF02195209370
:1031B0000B01DF91CF911F910F9108951182108221
:1031C00012828F5F3396D0CF0C2F10E070E0C801D1
:1031D0000E94F02920910F01820F482F50E020918A
:1031E0009C02022E000C330B02171307BCF0209137
:1031F0000C01022E000C330B201731077CF08D9F41
:10320000900111242B503D4F4091F3026091F20246
:103210008091F1020E94ED15CF5FAACFFA01EE0F67
:10322000FF1FE40FF51FEB50FD4F11821082128239
:10323000F3CFB0E0A0E0EFE1F9E10C94632AEC01F8
:103240004C81042F10E09801D8010E94342A9B0180
:10325000AC010E944A2A4B015C01E0E2F0E0E01B75
:10326000F10BA5E5B0E0AC019B010E944A2A6B017D
:103270007C019F01DF010E942C2A9B01AC010E946E
:10328000552A9B01AC01280D391D4A1D5B1DC70144
:10329000B6010E94042AF22E822F90E039E23F15F7
:1032A00020F143E0249F9001112435952795122F9A
:1032B000109500E085E5E82EEF18809111010817C0
:1032C00018F10E946E169C8181E0992319F09032CA
:1032D00019F48FEF80930A0180910A01890F8C8382
:1032E000CDB7DEB7ECE00C947F2A25E530E0B901DC
:1032F000681B790B9B01220F331F260F371F37FFE7
:10330000D4CF2F5F3F4FD1CF8E2D01FD8F2D209138
:103310000F01622F600F7727771F9B01220F331F4A
:10332000260F371F2B503D4F412F6091F2020E9414
:10333000ED150F5FC2CF0F931F93CF93DF93EC0177
:1033400010E000E0909111019017110609F06CF463
:103350000E946E168C8190E00196817099278C8373
:10336000DF91CF911F910F91089520910F01A80136
:10337000420F511D9A01220F331F240F351F2B506E
:103380003D4F4C816091F2028091F1029695901729
:10339000110651F04CF0442349F04091F3020E9491
:1033A000ED150F5F1F4FCECF4423B9F340E0F7CFA9
:1033B000E0EFF2E080818E7F808360817181828185
:1033C00093810E940F161092A8022FEF80E792E0DF
:1033D000215080409040E1F700C000000E946E162E
:1033E0000895E0EFF2E080818E7F80831092A80242
:1033F0002FEF80E792E0215080409040E1F700C03D
:1034000000000E946E1608951092A8028091A502F5
:1034100081110AC081E08093A5028091F002817041
:103420008093A4020E94F11908956091F0026695BC
:1034300070E04BE050E082E191E00E94942A892BF9
:1034400019F481E08093A8020E94822290939F0247
:1034500080939E0208959091F00290FF2BC091708E
:10346000811129C092609093F002662351F060911F
:10347000F0027091F1028091F2029091F3020E94A9
:103480000F166091F002669570E04BE050E082E12B
:1034900091E00E94942A892BA9F01092A80281E061
:1034A0008093A1024091F3026091F2028091F102B7
:1034B0000E94FA170895853210F09864D4CF880FCF
:1034C000982BD1CF0E94151AEACF682F9091F00265
:1034D000969581E0890F853208F081E00E942B1AD1
:1034E000089581E00E94651A0895682F9091F00276
:1034F00096958FEF890F09F484E20E942B1A0895A4
:1035000081E00E94751A089561E00E942B1A0895C7
:10351000E0EFF2E080818160808386950E94841ACA
:1035200008958091F00280FF03C00E94D819089589
:103530000E94881A089560E00E942B1A08958091D5
:10354000A60281112EC00E94AA0D811104C00E9402
:10355000530E0E9422160E940A166093F002709386
:10356000F1028093F2029093F3026E7F61F40E9465
:1035700022160E940A166093F0027093F102809363
:10358000F2029093F3020E94FB151092A802809120
:10359000F00280FF03C086950E949B1A81E0809311
:1035A000A6020895E0EFF2E0808181608083869535
:1035B0000E949B1A08951092A5028091A402811185
:1035C0000E94D21A0E94151A08950F931F93CF9349
:1035D000DF938091A8028823B9F18091A702E0913E
:1035E000F002E695E81BE093A002823091F5F0E04E
:1035F000EE5EFC4FE491CE2FD0E002EC16E180911C
:10360000A102882361F01092A1020E94822290936D
:103610009F0280939E021092A3021092A2020E9427
:103620008222E0919E02F0919F028E1B9F0B8F3FA2
:103630009F4750F4EC0FFD1FF0939F02E0939E0212
:103640008EE992E0F8010995DF91CF911F910F91DA
:103650000895863049F4F0E0E15FFC4FE491CE2F0D
:10366000D0E006ED16E1CBCF893051F4E695F0E0DD
:10367000E45FFC4FE491CE2FD0E00EEF17E1BFCF17
:103680008F3051F4E695F0E0E75FFC4FE491CE2FE8
:10369000D0E00BE318E1B3CF853149F4F0E0EA5F05
:1036A000FC4FE491CE2FD0E006EA18E1A8CFC8E2A3
:1036B000D0E009E119E1883109F4A1CF833239F46E
:1036C000E4E0F3E0C591D49106EE16E198CFC4EFA3
:1036D000D1E00BE919E1843209F491CFC0EDD7E0D4
:1036E00009EE15E18CCFFA01811101C0FB010995AA
:1036F0000895CF93DF93C82FD62F0E9432168C17D0
:1037000048F00E9432168D1728F40E94711ADF913A
:10371000CF9108958C2F0E94841AF9CF1F93CF93D5
:10372000DF93EC01FB01128111117EC00E94BC0CE1
:103730008272CD3CFCE5DF0709F49CC008F041C073
:10374000C73CECE5DE0709F481C0D8F4C43C9CE535
:10375000D90709F471C030F4C33CDC4509F469C0F1
:1037600011E062C0C53C9CE5D90709F46AC042EB90
:1037700057E163EA77E1C63CDC4591F70E94731B91
:1037800053C0CA3CFCE5DF0709F46AC068F4C83CD2
:10379000ECE5DE0709F45FC043EC57E164ED77E147
:1037A000C93CDC4559F3DCCFCB3C9CE5D90709F497
:1037B0005CC046E656E16EE476E1CC3CDC45F1F2D5
:1037C000CFCFC23DFCE5DF0709F465C098F4CF3CDC
:1037D0009CE5D90709F457C008F451C0C03DFCE589
:1037E000DF0709F455C0C13DDC4509F0B9CF6EE0F3
:1037F00089E04BC0C53D9CE5D90709F452C058F497
:10380000C33DFCE5DF0709F449C0C43DDC4509F0D0
:10381000A7CF88E135C0C63D9CE5D90709F444C06F
:10382000CE35DD4509F09CCF812FDF91CF911F91DF
:1038300008950E94911AF8CF40E85AE161E77AE1D1
:103840009DCF41E75AE160E87AE198CF43EA57E13A
:1038500062EB77E193CF44ED57E163EC77E18ECFF4
:1038600046EF57E165EE77E189CF45EE57E166EF28
:1038700077E184CF4EE456E166E676E17FCF81E0E2
:103880000E94841AD1CF65E082E00E94791BCCCFE0
:1038900068E086E0FACF64E18FE0F7CF67E185E189
:1038A000F4CF62E289E1F1CF83E2EACF86E090E0F3
:1038B0000E94B72A0895682F86E090E00E94CB2AE4
:1038C0000895E5E2F3E080818470896280830E943C
:1038D0005B1C08950E94AA0D811104C00E94530E22
:1038E0000E94611C0E94561C80932503803320F0A7
:1038F000877088628093250390912503892F8170BA
:1039000090FF04C0892F8695869586950E94731D29
:10391000089580912503982F9695969596959530C4
:1039200040F49F5F990F990F990F8770892B8093AF
:103930002503809125038160809325030E945B1CF1
:10394000809125038695869586950E94731D08951E
:1039500080912503982F987F79F0885080932503D4
:10396000887F91E009F490E08091250390FB80F935
:10397000809325030E945B1C809125038695869584
:1039800086950E94731D08958091250380FD13C0C4
:10399000816080932503813019F489E080932503A9
:1039A000809125030E945B1C809125038695869556
:1039B00086950E94731D08958091250380FF08C09D
:1039C0008E7F809325030E945B1C80E00E94731D04
:1039D00008958091250380FF03C00E94DC1C089598
:1039E0000E94C41C089590912503892F8695869581
:1039F00086958F5F8F7197708630E0F4880F880FFF
:103A0000880F892B8093250380912503887F91E07F
:103A100009F490E08091250390FB80F980932503C1
:103A20000E945B1C809125038695869586950E9451
:103A3000731D089590932503E7CF863008F085E045
:103A4000909125039770282F220F220F220F922B7F
:103A500090932503987F21E009F420E090912503BD
:103A600020FB90F9909325030E94731D08950E94F6
:103A70001D1D809125030E945B1C08959C01FB0184
:103A80008281882349F12E3BFCE53F07C9F040F4D1
:103A90002C3BECE53E0769F02D3B3C4579F0089561
:103AA000203C9CE5390791F070F0213C3C4589F0C1
:103AB000089585E00E94371D80E0089580E0FACFE8
:103AC0000E94A81CF9CF0E94891CF6CF0E94E91C15
:103AD000F3CF0E94F31CF0CF81E00895269A2E9830
:103AE00008952E9808958F929F92AF92BF92EF9271
:103AF000FF920F931F93CF93DF93C82F8630C0F5AB
:103B0000811137C0809180008F7D809380000E945A
:103B1000711DA0918600B09187002C2F30E00E948B
:103B2000342A25E030E040E050E00E94042A890178
:103B30009A0180918600909187006CE070E00E946D
:103B4000DC2960177107D8F0C80169E070E00E94B5
:103B5000DC2970938B0060938A00DF91CF911F91D5
:103B60000F91FF90EF90BF90AF909F908F9008952E
:103B7000C5E080918000806280938000CACF8091F0
:103B8000860090918700E0908600F0908700E09199
:103B90008600F0918700C6E0D0E0BE010E94DC29DB
:103BA000060F171F211D311D4801590185E0880CA2
:103BB000991CAA1CBB1C8A95D1F7C701BE010E94A3
:103BC000DC299F0150E040E0260F371F411D511DA9
:103BD000C501B4010E94042A49015A01E0918600FE
:103BE000F0918700CA01B9010E94CC299B01AC0168
:103BF000DF010E944A2A9B01AC01C501B4010E9469
:103C0000CC292FE096958795779567952A95D1F7DA
:103C1000009186001091870030E020E0061717071A
:103C20002807390708F095CF6091860070918700CA
:103C300090CF08950E946E1D82E28093800089E1FA
:103C4000809381008FEF9FEF909387008093860091
:103C50000E946A1C08956A9A4EB14B7F5EB154600F
:103C6000EFB7F8949B01220F331F260F371F280F41
:103C7000391F2817390741F4EFBF8FE594E001970A
:103C8000F1F700C000000895DC016D91CD0178E0EE
:103C90005EB9000000C067FF4EB9660F000000C0AB
:103CA00000C000C04EB900C07A9591F7E2CFCF9323
:103CB000DF93EC01FB018281882309F464C1C430E5
:103CC000FDE5DF07E0F5CB3F9CE5D90730F49E0129
:103CD00022503C4524313105D8F50E94BF0D909308
:103CE000DB028093DA02C231ECE5DE0709F41FC182
:103CF00008F06EC0C9308CE5D80709F4F2C008F0AE
:103D00003FC0C530ECE5DE0709F4DBC058F5C33031
:103D10008CE5D80709F4CDC008F0CFC08091DA0255
:103D20008160C230DC4509F4AEC08091DA02909126
:103D3000DB020E94CD0D0E94400880E009C0C63A17
:103D4000EDE5DE0751F238F4C2369DE5D90729F2D8
:103D5000DF91CF9108959E012E5A3D4523303105C4
:103D6000B8F7BBCF8091DA028062C730FCE5DF078D
:103D700009F489C008F4B1C08091DA02806483C07C
:103D8000CD309CE5D90709F4BAC070F48091DA020D
:103D90008E7FCB30FCE5DF0709F475C008F4A7C0BF
:103DA0008091DA028D7F6FC0CF309CE5D90709F48E
:103DB000B6C008F4A8C0C031FCE5DF0709F4B3C001
:103DC000C131DC4509F0B1CF8091DA028F7B5BC055
:103DD000C1159DE5D90709F4B4C098F5CB3FFCE5C2
:103DE000DF0709F472C0B8F4C4319CE5D90709F4BF
:103DF000B6C008F4A2C0C531DC4509F096CF809169
:103E0000DA0282FB992790F921E0922790FB82F950
:103E100090FB83F938C0CD3F8CE5D80709F477C013
:103E200008F457C0CE3FECE5DE0709F474C080917A
:103E3000DB028360CF3FDC4509F077CF8093DB0264
:103E400074CFC2368DE5D80709F496C068F4C23045
:103E5000EDE5DE0709F48CC008F477C0C330DD451A
:103E600009F063CF80E085C0CE3A9DE5D907E9F03F
:103E700068F49091DA02892F8E7F90FF8160C63AB4
:103E8000DD4509F052CF8093DA024FCFCF3A8DE56E
:103E9000D80789F1C03BDD4509F047CF9091DB029F
:103EA000892F877F93FF8860C9CF8091DB0288606C
:103EB000C5CF8091DA028260E6CF8091DA02846019
:103EC000E2CF8091DA028860DECF8091DB028160F0
:103ED000B5CF8091DB028260B1CF8091DA02806140
:103EE000D2CF0E9440088091DA028068CCCF8091C6
:103EF000DA028C60C8CF8091DB02877F9FCF8091F0
:103F0000DA028B7FC0CF8091DA02877FBCCF8091AD
:103F1000DB028E7F93CF8091DB028D7F8FCF8091EC
:103F2000DA028F7EB0CF8091DA028F7DACCF0E9413
:103F300040088091DA028F77A6CF8091DA02837FE2
:103F4000A2CF8091DB028C7F79CF8091DB02982F0A
:103F5000909591708E7F892B90FB81F96FCF0E9495
:103F600040089091DA02892F97FB87F980588BCF10
:103F700081E00E94560ED9CE9091DA02892F8F7E71
:103F800094FF806180CF81E0E3CECF93DF93EB019C
:103F900086319C4511F50E94BC0C9A81992399F0B9
:103FA0008A7A91E009F490E09093A902811109C006
:103FB00089E20E94940C0E94FD0C80E0DF91CF9179
:103FC000089585E3F6CF8091A902811104C089E2AA
:103FD0000E949C0CF0CF85E3FBCF81E0EFCF0F93E5
:103FE0001F93CF93DF93C42FD22FFC0182818823AC
:103FF000C9F04093AC020E9482229093AB0280935E
:10400000AA0280E28C0F883040F4C77081E001C0C2
:10401000880FCA95EAF70E94E205DF91CF911F91C0
:104020000F9108951091AC02141332C08091AA022E
:104030009091AB020E949A22883C910548F5C0E21B
:10404000CD0F1D17B9F080E2810F883040F4177052
:1040500081E001C0880F1A95EAF70E94E905C8308F
:1040600048F481E09D2F977001C0880F9A95EAF778
:104070000E94E205802F0E94D905C83070F6D770E3
:1040800081E001C0880FDA95EAF70E94E905C5CF03
:1040900080E28C0F883008F6C77081E001C0880F7D
:1040A000CA95EAF7F2CF0F939C01CB01243F4CE570
:1040B000340759F1A8F4293DFCE53F0701F12A3DF9
:1040C0004CE53407D1F1283D3C4591F406E221EE60
:1040D00041EE68ED7CE50E94EF1F80E00F910895AE
:1040E000263FFCE53F07E9F0B0F0273F3C45F9F0FB
:1040F000FC018281882339F11092AC02EFCF07E2F4
:1041000025EE45EE69ED7CE5E6CF06E221EE40EED8
:1041100064EF7CE5E0CF07E225EE44EE65EF7CE559
:10412000DACF06E221EE42EE66EF7CE5D4CF07E27D
:1041300025EE46EE67EF7CE5CECF08E221E045EEC6
:104140006AED7CE5C8CF81E0C9CF9093C701809329
:10415000C60108959093B2028093B1020895E09150
:10416000B102F091B202309729F00190F081E02D78
:104170000995089580E00895E091B102F091B202AE
:10418000309799F020912901222359F02091DA02E9
:1041900027FF07C0DC012C9111962C93119726E084
:1041A0002C930280F381E02D09950895E091B102EE
:1041B000F091B202309739F022E0DC012C930480B8
:1041C000F581E02D099508952091AF023091B0025C
:1041D0002817390771F09093B0028093AF02E091F5
:1041E000B102F091B202309721F00680F781E02D04
:1041F000099508952091AD023091AE022817390734
:1042000071F09093AE028093AD02E091B102F09113
:10421000B202309721F00084F185E02D09950895D0
:10422000FC01329680912901882321F08091DA02E5
:104230009EE187FF96E080E0915008F40895219177
:104240002223D1F38F5FF8CF662301F1209129015A
:104250002223F1F02091DA0227FF1AC0462F46955B
:10426000469546954E3190F4677021E030E002C0EB
:10427000220F331F6A95E2F7840F911DFC018281A2
:1042800090E02823392381E0232B69F480E008950E
:10429000FC01329608962191261721F0E817F907BC
:1042A000D1F7F4CF81E008959C01FC0132969FEF95
:1042B00080E04191461751F09F3F19F4411101C030
:1042C000982F8F5F8630A9F79F3F09F40895290F33
:1042D000311D97FD3A95F90162830895FC013296EC
:1042E00008962191261303C0DF0111971C92E8174D
:1042F000F907B9F70895E62FE695E695E695EE31CC
:1043000068F4E80FF92FF11D677021E030E001C07B
:10431000220F6A95EAF78281822B82830895E62F25
:10432000E695E695E695EE3170F4E80FF92FF11D6C
:10433000677021E030E001C0220F6A95EAF720950E
:10434000828128232283089520912901222339F094
:104350002091DA0227FF03C00E947B2108950E946A
:104360005421089520912901222339F02091DA0265
:1043700027FF03C00E948F2108950E946E21089597
:10438000FC01329680912901882351F08091DA0254
:1043900087FF06C08EE1DF011D928A95E9F7089537
:1043A00086E0F9CF46E050E00E94A12A21E0892B67
:1043B00009F420E0822F089508950E94DC210895D9
:1043C000811106C081E08093B3020E94DD2108952F
:1043D00082E0F9CF83E08093B3020E94DD2108954B
:1043E0000E94E021089581E08093B3020E94DD21C4
:1043F00008950E94F3210895089508950E94FD21D3
:104400000895089508950E94FC210895CF930E9475
:1044100001220E9438120E940222C0E08C2F0E94CA
:104420006911892B31F4CF5FC530C1F780E0CF919E
:10443000089581E0FCCF85B7806885BF85B7806827
:1044400085BF08951F921FB61F9211248F939F93CB
:10445000AF93BF938091B402811113C08091260362
:1044600090912703A0912803B09129034196A11DA3
:10447000B11D8093260390932703A0932803B09344
:104480002903BF91AF919F918F911F901FBE1F90E5
:10449000189580912E03843031F10E9448041092C7
:1044A000B40288E190E020E40FB6F894A8958093D8
:1044B00060000FBE2093600083B7817F846083BF5C
:1044C00083B7816083BF7894889583B78E7F83BFDD
:1044D0000FB6F894A8958091600088618093600081
:1044E000109260000FBE08950E9440080E9452047E
:1044F000089582E084BD93E095BD9AEF97BD8093C7
:104500006E0008952FB7F8948091260390912703A9
:10451000A0912803B09129032FBF08952FB7F894D5
:1045200060912603709127038091280390912903BD
:104530002FBF08959C014FB7F89480912603909166
:104540002703A0912803B09129034FBF821B930B2F
:10455000089578941F921FB61F9211248F939F93F2
:10456000AF93BF938091260390912703A0912803D6
:10457000B09129030196A11DB11D8093260390934C
:104580002703A0932803B0932903BF91AF919F9174
:104590008F911F901FBE1F90189581E08093E000BF
:1045A00080E28093D8001092C9008FE19EE40197C9
:1045B000F1F700C0000087E090EBDC018093370347
:1045C00090933803A0933903B0933A0388E19CE0B9
:1045D0000FB6F894A895809360000FBE909360008A
:1045E000FFCF88E19CE00FB6F894A8958093600017
:1045F0000FBE90936000FFCF8091D8020895089578
:104600009C0182E08093E9009FEF8091E800915047
:1046100085FD06C085ED8A95F1F700009111F5CF73
:104620008091E80085FF0CC050E040E066E070E05B
:10463000C9010E9445258091E8008E778093E800AB
:104640000895CF93DF93EC01809129018823B1F184
:104650008091DA0287FF32C060E282E08093E90055
:104660008FEF9091E800815095FD06C095ED9A95E9
:10467000F1F700008111F5CF8091E80085FF1BC0A4
:104680008091290170E050E040E0811104C050E0C9
:1046900040E068E070E0CE010E9445258091E8008E
:1046A0008E778093E80080E2FE01A8EBB2E00190F3
:1046B0000D928A95E1F7DF91CF91089568E081E04E
:1046C000CDCF8093B5027093B7026093B60280910C
:1046D0002E03843001F582E08093E9008FEF909102
:1046E000E800815095FD06C095ED9A95F1F7000020
:1046F0008111F5CF8091E80085FF0DC050E040E0CA
:1047000063E070E085EB92E00E9445258091E8002F
:104710008E778093E8000895BC0184E00E946123B5
:104720000895BC0183E00E946123089580912D03C8
:10473000811109C00E94D5260E9432278091E20093
:1047400084608093E200089510922D0308950E94E2
:10475000F321089560912A0381E0611101C080E096
:104760000E94EA21089590912E0381E0943009F08F
:1047700080E060912A030E94F021089542E061ECFC
:1047800081E00E94512642E261EC82E00E945126C3
:1047900090912E0381E0943009F080E060912A032B
:1047A0000E94E021089580913003833009F461C0B4
:1047B00030F48130D1F1823009F49EC008958A30FE
:1047C00009F48AC08B3009F46FC0893009F050C0F9
:1047D00080912F03813209F04BC080913303909177
:1047E0003403029708F044C08091E800877F8093EB
:1047F000E8008091E80082FF37C09091F30080913B
:10480000F200029731F48091F100813011F086308E
:1048100021F48091F1008093D8028091E8008B7799
:104820008093E8000E94852623C080912F03813A5F
:10483000F9F48091E800877F8093E800809133034A
:1048400090913403892B61F460E288EB92E070E090
:104850000E9494258091E8008B778093E80008956A
:1048600060E090E080E0F3CF80912E038111C1CF12
:10487000089580912F03813AD9F780913303909165
:104880003403892BA9F78091E800877F8093E800A3
:104890008091E80080FFFCCF809129018093F10096
:1048A0008091E8008E77BCCF80912F03813201F791
:1048B0008091330390913403892BD1F68091E800E5
:1048C000877F8093E8000E94852680913103809342
:1048D00029010E944008089580912F03813241F6FA
:1048E0008091E800877F8093E8000E948526809170
:1048F00032038093D902089580912F03813A09F001
:10490000B7CF8091E800877F8093E8008091E8002E
:1049100080FFFCCF8091D902C1CF84B7877F84BF4D
:104920000FB6F894A895809160008861809360002C
:10493000109260000FBE80E890E00FB6F89480936C
:104940006100909361000FBE0E94F92108950E94BA
:10495000D5260E943227E2EEF0E0808184608083D9
:1049600078940E94B12908958DE191E00E94AA20D7
:10497000089580912E03853031F480912E03853087
:1049800019F00E94742208950E94492280912C03FC
:10499000882399F30E940622882379F30E942F2509
:1049A0000E944008EACF08950E94D7240895292F35
:1049B00033272330310519F168F42130310509F42A
:1049C00044C02230310509F445C090E080E030E079
:1049D00020E025C02132310549F122323105A9F705
:1049E00080E490E020E436E061157105C1F086EBCB
:1049F00090E02AE835E06130710589F0E6CF99272B
:104A00008130910581F0009729F00297F1F6EBE1F2
:104A1000F5E002C0E9E3F5E0849190E09F01FA013E
:104A2000318320830895E7E2F5E0F6CF89E090E056
:104A30002FE435E06115710591F389E090E028E6F7
:104A400035E06130710559F3C0CF82E190E028E78D
:104A500035E0E5CF8BE390E02DE335E0E0CF80E17A
:104A600089BD82E189BD09B400FEFDCF8091D800E7
:104A70008F7D8093D8008091E00082608093E00079
:104A80008091E00081FDFCCF0895AF92BF92CF925C
:104A9000DF92FF920F931F93CF93DF936C01EB0193
:104AA0008A010E94A426F82E811123C00115110548
:104AB00039F0F80180819181C81BD90BC80ED91E2D
:104AC000B12CA12C2097A9F08091E80085FD22C08F
:104AD0008091E8008E778093E80001151105A1F020
:104AE000F80180819181A80EB91EB182A08285E073
:104AF000F82E8F2DDF91CF911F910F91FF90DF90B6
:104B0000CF90BF90AF9008950E94A4268823D1F241
:104B1000F82EEFCFF60181916F018093F10021977C
:104B2000FFEFAF1ABF0ACECFFC0180913503909101
:104B3000360386179707A0F06115710529F4909147
:104B4000E8009E779093E80090E06115710551F4BC
:104B5000911108C08091E80082FF34C080E0089580
:104B6000BC01F2CF80912E038823C1F18530C1F1C1
:104B70008091E80083FD30C08091E80082FDEACF9B
:104B80008091E80080FFE1CF8091F3002091F20056
:104B9000382F6115710519F02830310558F091E072
:104BA0002830310509F090E02091E8002E7720931D
:104BB000E800CBCF81918093F100615071092F5FA4
:104BC0003F4FE7CF80912E03882341F0853041F09D
:104BD0008091E80083FFBECF81E0089582E00895D0
:104BE00083E00895FC018091350390913603861788
:104BF0009707A0F06115710529F48091E8008E7780
:104C00008093E80090E06115710551F4911108C09E
:104C10008091E80082FF35C080E00895BC01F2CFAA
:104C200080912E038823C9F18530C9F18091E80075
:104C300083FD31C08091E80082FDEACF8091E800D9
:104C400080FFE1CF8091F3002091F200382F6115B1
:104C5000710519F02830310558F091E02830310500
:104C600009F090E08091E8008E778093E800CBCF48
:104C700084918093F1003196615071092F5F3F4F0D
:104C8000E6CF80912E03882341F0853041F080915A
:104C9000E80083FFBDCF81E0089582E0089583E0BE
:104CA0000895982F973028F08F708093E90081E065
:104CB00008959093E900242F762F50E0981731F053
:104CC0007091EC002091ED005091F00021FD02C0A8
:104CD0009F5FE8CF3091EB003E7F3093EB00309147
:104CE000ED003D7F3093ED003091EB00316030936B
:104CF000EB007093EC002093ED005093F0002091B6
:104D0000EE0027FDE5CF80E0089580912F0387FF17
:104D100013C08091E80082FF06C08091E8008B7785
:104D20008093E80004C080912E038111F2CF089592
:104D300080912E038823D9F38091E80080FFF8CF7B
:104D40008091E8008E77ECCF2091E4003091E5006F
:104D500095E6A9012091EC00822F817020FF06C00A
:104D60008091E80080FF06C080E008952091E8006F
:104D700022FD1AC080912E03882389F0853089F0A6
:104D80008091EB0085FD0FC02091E4003091E5009B
:104D900042175307F9F29150E1F684E0089582E05A
:104DA000089583E0089581E008950E9444270E94B9
:104DB0004C27E0EEF0E0808181608083E8EDF0E058
:104DC00080818F77808319BCA7EDB0E08C918E7FB6
:104DD0008C9380818F7E808310922D0308950F9392
:104DE0001F93CF93DF930E9444270E944C27C8ED66
:104DF000D0E088818F7788838881806888838881E4
:104E00008F7D888319BC10922E0310922A03109272
:104E10002C0310922B0300EE10E0F80180818B7FB1
:104E2000808388818160888342E060E080E00E9426
:104E30005126E1EEF0E080818E7F8083E2EEF0E0AB
:104E4000808181608083808188608083F801808197
:104E50008E7F8083888180618883DF91CF911F91CD
:104E60000F910895E8EDF0E080818F7E8083E7ED7B
:104E7000F0E080818160808384E082BF81E0809364
:104E80002D030E94EF260895E8EDF0E080818E7FEB
:104E900080831092E20008951092DA001092E100EF
:104EA00008951F920F920FB60F9211242F933F93E4
:104EB0004F935F936F937F938F939F93AF93BF9322
:104EC000EF93FF938091E10082FF0BC08091E2009D
:104ED00082FF07C08091E1008B7F8093E1000E94F8
:104EE000B0298091DA0080FF19C08091D80080FF3E
:104EF00015C08091DA008E7F8093DA008091D9000E
:104F000080FF96C080E189BD82E189BD09B400FEC1
:104F1000FDCF81E080932E030E9496238091E100D3
:104F200080FF19C08091E20080FF15C08091E200EF
:104F30008E7F8093E2008091E20080618093E200A6
:104F40008091D80080628093D80019BC85E080935E
:104F50002E030E94AA238091E10084FF2BC0809140
:104F6000E20084FF27C080E189BD82E189BD89B567
:104F7000982F917080FFFBCF8091D8008F7D809318
:104F8000D8008091E1008F7E8093E1008091E20063
:104F90008F7E8093E2008091E20081608093E20046
:104FA00080912A03882309F449C084E080932E036A
:104FB0000E94B3238091E10083FF29C08091E20029
:104FC00083FF25C08091E100877F8093E10082E02C
:104FD00080932E0310922A038091E1008E7F8093AC
:104FE000E1008091E2008E7F8093E2008091E200F8
:104FF00080618093E20042E060E080E00E94512600
:105000008091F00088608093F0000E94A723FF91B8
:10501000EF91BF91AF919F918F917F916F915F9130
:105020004F913F912F910F900FBE0F901F901895A9
:1050300019BC10922E030E94A42370CF8091E3002C
:1050400087FD93E090932E03B3CF1F920F920FB67C
:105050000F9211242F933F934F935F936F937F93FE
:105060008F939F93AF93BF93CF93DF93EF93FF9370
:10507000D091E900DF708091EC00C82FC17080FDF5
:10508000C0E81092E9008091F000877F8093F000E3
:1050900078940E9469281092E9008091F00088605D
:1050A0008093F000CD2BCF70C093E900FF91EF917A
:1050B000DF91CF91BF91AF919F918F917F916F9130
:1050C0005F914F913F912F910F900FBE0F901F90C6
:1050D0001895AAE2B0E0EFE6F8E20C946C2A8FE2B1
:1050E00093E02091F100FC012193CF01F3E087339D
:1050F0009F07B9F70E94D3238091E80083FF1EC168
:1051000080912F03909130039A3008F017C1E92F56
:10511000F0E0E35FF44D0C94262A803899F0823851
:1051200009F00CC1809133038F70873008F006C1FD
:105130008093E9008091EB0085FB882780F910922D
:10514000E90006C080912B0390912C03911182609D
:105150009091E800977F9093E8008093F10010927F
:10516000F1008091E8008E77E5C0882309F4D3C070
:10517000823009F0E3C0809131038111D6C0809163
:1051800033038F702FEF280F263008F0D7C080939D
:10519000E9002091EB0020FFC8C0933031F48091EA
:1051A000EB0080628093EB00C0C09091EB009061B7
:1051B0009093EB0021E030E001C0220F8A95EAF7DE
:1051C0002093EA001092EA008091EB008860EACF19
:1051D0008111B4C0109131031F778091E300807872
:1051E000812B8093E3008091E800877F8093E80023
:1051F0000E9485268091E80080FFFCCF8091E3002B
:1052000080688093E30082E0111183E080932E0395
:1052100095C08058823008F091C080913103909100
:1052200032038C3D23E09207A1F583E08A838AE272
:1052300089834FB7F894DE01139620E03EE051E2F7
:10524000E32FF0E050935700E49120FF03C0E29574
:10525000EF703F5FEF708E2F90E0EA30C0F0C7969E
:105260008D939D932F5F243159F74FBF8091E800B4
:10527000877F8093E8006AE270E0CE0101960E9489
:1052800094258091E8008B778093E80057C0C09602
:10529000E7CF6091330370913403AE014F5F5F4FEE
:1052A0000E94D424BC01892B09F448C09091E800E5
:1052B000977F9093E80089819A810E94F225E1CF3F
:1052C0008038E1F58091E800877F8093E800809145
:1052D0002A038093F10045CF811130C090913103B2
:1052E000923060F58091E800877F8093E80090938A
:1052F0002A030E94852680912A03882311F084E0E6
:1053000005C08091E30087FDFACF81E080932E03F2
:105310000E94BE2313C080913103813079F481E073
:10532000933009F080E080932C031092E900809183
:10533000E800877F8093E8000E9485268091E8003E
:1053400083FF0AC08091E800877F8093E800809106
:10535000EB0080628093EB00AA96E3E00C94882A2D
:105360000895CF9380912E038823A1F0C091E90086
:10537000CF709091EC00892F817090FD80E8C82B50
:105380001092E9008091E80083FD0E946928CF70A7
:10539000C093E900CF910895DB018F939F930E9402
:1053A0004A2ABF91AF91A29F800D911DA39F900D9E
:1053B000B29F900D11240895AA1BBB1B51E107C099
:1053C000AA1FBB1FA617B70710F0A61BB70B881F95
:1053D000991F5A95A9F780959095BC01CD01089524
:1053E00097FB072E16F4009407D077FD09D00E9492
:1053F000DC2907FC05D03EF4909581959F4F0895D8
:10540000709561957F4F0895A1E21A2EAA1BBB1BD0
:10541000FD010DC0AA1FBB1FEE1FFF1FA217B30780
:10542000E407F50720F0A21BB30BE40BF50B661F96
:10543000771F881F991F1A9469F76095709580955A
:1054400090959B01AC01BD01CF010895EE0FFF1FA8
:105450000590F491E02D09940E94342A332312F42C
:105460008A1B9B0B0C94452AA29FB001B39FC001DD
:10547000A39F700D811D1124911DB29F700D811D80
:105480001124911D08950E94342AB7FF0895821BAC
:10549000930B08950E94342AA59F900DB49F900D00
:1054A000A49F800D911D11240895B7FF0C944A2AE2
:1054B0000E944A2A821B930B08952F923F924F928B
:1054C0005F926F927F928F929F92AF92BF92CF9294
:1054D000DF92EF92FF920F931F93CF93DF93CDB79D
:1054E000DEB7CA1BDB0B0FB6F894DEBF0FBECDBF15
:1054F00009942A88398848885F846E847D848C84E6
:105500009B84AA84B984C884DF80EE80FD800C81EE
:105510001B81AA81B981CE0FD11D0FB6F894DEBFD1
:105520000FBECDBFED010895FC014150504030F059
:1055300001900616D1F73197CF0108958827992752
:105540000895FB01DC0104C08D910190801921F4C4
:1055500041505040C8F7881B990B0895FB01DC01AE
:1055600002C001900D9241505040D8F70895F9992A
:10557000FECF92BD81BDF89A992780B50895A6E126
:10558000B0E044E050E00C94F12AA8E1B0E042E041
:1055900050E00C94F12A262FF999FECF92BD81BDDF
:1055A000F89A019700B4021639F01FBA20BD0FB661
:1055B000F894FA9AF99A0FBE08950396272F0E943D
:1055C000CC2A0E94CB2A252F0E94CC2A242F0C946F
:1055D000CC2A0196272F0E94CC2A0C94CB2ADC01DE
:1055E000CB01FC01F999FECF06C0F2BDE1BDF89AEE
:1055F000319600B40D9241505040B8F70895F89498
:10560000FFCF2B062B065C065C06E90605078B061A
:105610008B0610078107900790078D28B5289E29D3
:0E562000B5289E29E82809299E2960296C29B1
:10562E005402280850011E0A140101010200100044
:10563E00101001191A1B1C1D1E1F202122FC2221D5
:10564E0023002391238C23FF2201E200E900EA00CC
:10565E00B500B600B700CD008301CC008A019201DF
:10566E0094012102230224022502260227022A0285
:10567E00B300B4006F007000818283E200E900EA9B
:10568E0000B500B600B700CD008301CC008A0192B0
:10569E000194012102230224022502260227022A56
:1056AE0002B300B4006F007000818283F0F1C66710
:1056BE0066379431303534979633F49091929395B2
:1056CE000001020202020606060909090909090F6C
:1056DE000F0F0F0F0F15151518191919191919196B
:0656EE0019191923240024
:00000001FF
