:100000000C9457050C949E050C949E050C949E052B
:100010000C949E050C949E050C949E050C949E05D4
:100020000C949E050C949E050C94B1280C94832985
:100030000C94151E0C949E050C949E050C949E0524
:100040000C949E050C94380D0C949E050C949E0502
:100050000C945D0D0C94891E0C949E050C949E05C9
:100060000C949E050C949E050C949E050C949E0584
:100070000C949E050C949E050C949E050C949E0574
:100080000C949E050C949E050C949E050C949E0564
:100090000C949E050C949E050C949E050C949E0554
:1000A0000C949E050C949E050C949E05AD13AD1307
:1000B000DF13DF132C148F158F158F154C14E914D3
:1000C000FA14FA145B1564158F1588150D160D16A4
:1000D0001F161F1616161F161F161F160D160D16A5
:1000E0001B161F161F161B16F029172A092B172A75
:1000F000092B632A862A092BDC2AEB2A3900000007
:100100003A003B003C003D003E003F004000410003
:1001100042004300440045004600470048003500C7
:100120001E001F00200021002200230024002500C3
:10013000260027002D002E002A0049004A004B000F
:100140002B0014001A000800150017001C001800EE
:100150000C00120013002F00300031004C004D0045
:100160004E00290004001600070009000A000B00D9
:100170000D000E000F0033003400000028000000C6
:1001800000000000E10000001D001B000600190037
:10019000050011001000360037003800E5000000AF
:1001A000000052000000E000E300E2000000000058
:1001B0000000000000002C000000E600E7000151F4
:1001C000E400500051004F00010000006800690089
:1001D0006A006B006C006D006E006F0070007100B3
:1001E000720073002400250026000100C35CC55C7A
:1001F000C75CC95CCB5C010001000100010001008B
:1002000001000100005C210022002300C25CC45CEC
:10021000C65CC85CCA5CCC5C010001000100010046
:1002200001000100010001001E001F002000BF5C52
:10023000BE5CBD5CC15CC05C01000100010001004E
:1002400001000100010000000100000000000000AA
:1002500001000000AA00A900A8000100010001009F
:100260000100AC00AB00AE00270000000000010060
:10027000000001000100010000000000000000007B
:100280000000010000000100010001000100010068
:100290000100010044454255473A20646973616298
:1002A0006C65642E0A0044454255473A20656E61EC
:1002B000626C65642E0A000A00253033326C6200DD
:1002C0003A200025303258000A722F632030313234
:1002D000333435363738394142434445463031327C
:1002E000333435363738394142434445460A006293
:1002F00061636B6C6967687420737465703A20255C
:10030000750A006261636B6C696768742064697365
:1003100061626C650A006261636B6C696768742076
:10032000656E61626C650A006261636B6C69676827
:100330007420746F67676C653A2025750A006261E6
:10034000636B6C696768742064656372656173656B
:100350003A2025750A006261636B6C6967687420D6
:10036000696E6372656173653A2025750A000A003B
:100370002530325820006B6579626F6172645F725C
:1003800065706F72743A20000A0025303258006B95
:100390006579626F6172645F7365745F6C65643AFE
:1003A0002000646F6E652E0A00626F6F746D616766
:1003B0006963207363616E3A202E2E2E20003F0069
:1003C000433E20004C25640A0074696D65725F72BB
:1003D000656164333228293A202530346C580A008C
:1003E0006B6579626F6172645F69646C653A202540
:1003F000580A006B6579626F6172645F70726F7426
:100400006F636F6C3A2025580A00686F73745F6BD6
:100410006579626F6172645F6C65647328293A2044
:1004200025580A000A092D20537461747573202D14
:100430000A004743433A20342E392E322041565287
:100440002D4C4942433A20312E382E3073766E209F
:100450004156525F415243483A20617672350A0054
:100460004F5054494F4E533A204C55464120424F2D
:100470004F544D414749432045585452414B4559EB
:1004800020434F4E534F4C4520434F4D4D414E441A
:1004900020343039360A004255494C443A20223043
:1004A0002E372E3130362D32342D673339353166C3
:1004B000332D646972747922202831363A31373A03
:1004C0003333204A616E2020332032303230290A03
:1004D000005649443A20307846454544284B502040
:1004E00052657075626C696329205049443A203026
:1004F0007830303030285844383720544B4C29203D
:100500005645523A203078303030310A0044455355
:10051000433A204B502052657075626C69632058D5
:100520004438370A000A092D2056657273696F6EC8
:10053000202D0A000A092D20436F6E736F6C652011
:100540002D0A4553432F713A09717569740A000ADF
:10055000092D204D61676963202D0A443A094465DD
:10056000627567204D65737361676520546F6767B7
:100570006C650A583A094D61747269782044656265
:100580007567204D6F646520546F67676C65202D1B
:100590002053686F77206B6579707265737365732C
:1005A00020696E206D617472697820677269640ACF
:1005B0004B3A094B6579626F6172642044656275DC
:1005C0006720546F67676C65202D2053686F772014
:1005D0006B65797072657373207265706F72740ADF
:1005E0004D3A094465627567204D6F7573652054F7
:1005F0006F67676C650A563A0956657273696F6E64
:100600000A533A095374617475730A433A09416392
:1006100074697661746520436F6E736F6C65204DED
:100620006F64650A46312D4631303A095377697453
:10063000636820746F204C6179657220302D3920F9
:1006400028463130203D204C30290A302D393A09D6
:1006500053776974636820746F204C6179657220E8
:10066000302D390A47524156453A09537769746328
:100670006820746F204C6179657220302028616C8D
:100680007465726E617465290A423A094A756D7023
:1006900020746F20426F6F746C6F616465720A45DD
:1006A00053433A094A756D7020746F20426F6F741E
:1006B0006C6F616465722028616C7465726E617420
:1006C00065290A453A095072696E742045455052B1
:1006D0004F4D2053657474696E67730A42535041DD
:1006E00043453A09436C65617220454550524F4D70
:1006F0000A000A002575002E6C6576656C3A2000AC
:100700000A002575002E656E61626C653A20000A4C
:100710000025303258006261636B6C696768745FF2
:10072000636F6E6669672E7261773A20000A002552
:1007300075002E6E6B726F3A20000A002575002E30
:10074000737761705F6261636B736C6173685F6222
:1007500061636B73706163653A20000A0025750060
:100760002E737761705F67726176655F6573633A58
:1007700020000A002575002E6E6F5F6775693A20AC
:10078000000A002575002E737761705F72616C74CA
:100790005F726775693A20000A002575002E73772D
:1007A00061705F6C616C745F6C6775693A20000AF8
:1007B000002575002E737761705F7263746C5F72D1
:1007C0006775693A20000A002575002E73776170FD
:1007D0005F6C63746C5F6C6775693A20000A002572
:1007E00075002E636170736C6F636B5F746F5F6312
:1007F0006F6E74726F6C3A20000A002575002E73BC
:100800007761705F636F6E74726F6C5F636170733A
:100810006C6F636B3A20000A0025303258006B651C
:10082000796D61705F636F6E6669672E7261773A8A
:1008300020000A002575002E6D6F7573653A200043
:100840000A002575002E6B6579626F6172643A202B
:10085000000A002575002E6D61747269783A2000D7
:100860000A002575002E656E61626C653A20000AEB
:1008700000253032580064656275675F636F6E668D
:1008800069672E7261773A20000A00257500646559
:100890006661756C745F6C617965723A20003F0027
:1008A0000A6D6F7573653A206F66660A000A6D6F90
:1008B0007573653A206F6E0A000A6B6579626F6125
:1008C00072643A206F66660A000A6B6579626F612E
:1008D00072643A206F6E0A000A6D61747269783A28
:1008E000206F66660A000A6D61747269783A206F3B
:1008F0006E0A000A64656275673A206F66660A00D0
:100900000A64656275673A206F6E0A000A0A4A75C2
:100910006D70696E6720746F20626F6F746C6F61A9
:100920006465722E2E2E2000433E2000436C6561CC
:1009300072696E6720454550524F4D0A00656563E8
:100940006F6E6669673A0A005B735D004B6579629A
:100950006F6172642073746172742E0A005B575D5C
:10096000005B535D005B525D005B445D005B435D7B
:100970000004033000000012035800440038003720
:1009800000200054004B004C00000018034B0050A6
:10099000002000520065007000750062006C006964
:1009A00000630000000403090409025B0003010066
:1009B000A0FA09040000010301010009211101004E
:1009C000012240000705810308000A090401000113
:1009D00003000000092111010001223600070582F1
:1009E0000320000A0904020002030000000921118B
:1009F00001000122220007058303200001070503EF
:100A0000032000011201100100000008EDFE0000AB
:100A10000100010203010631FF0974A101097515E6
:100A20000026FF009520750881020976150026FF33
:100A300000952075089102C005010980A101850378
:100A40001A81002A83001601002603009501751003
:100A50008100C0050C0901A10185041A01002A9C2E
:100A600002160100269C02950175108100C0050147
:100A70000906A101050719E029E7150025019508D8
:100A8000750181029501750881010507190029FF8B
:100A9000150026FF00950675088100050819012933
:100AA00005950575019102950175039101C0112409
:100AB0001FBECFEFDAE0DEBFCDBF04B603FE27C016
:100AC0008091400290914102A0914202B091430274
:100AD0008730904BA740B04BD1F410924002109257
:100AE0004102109242021092430214BE84B7877FE3
:100AF00084BF0FB6F894A8958091600088618093B8
:100B00006000109260000FBEE0E0F8E3099511E08C
:100B1000A0E0B1E0E4EEF7E502C005900D92A43349
:100B2000B107D9F722E0A4E3B1E001C01D92A034DF
:100B3000B207E1F70E94D1250C94F02B0C94000031
:100B4000FF93EF93E0913401F0913501309709F074
:100B50000995EF91FF910895FC018591803011F086
:100B6000EFDFFBCF0895FF27E0E230E247FF0CC044
:100B7000419597FF09C0EDE260957095809590953D
:100B8000611D711D811D911D27FF02C0219530E35C
:100B900050E2AA27660F771F881F991FAA1FA41764
:100BA00010F0A41B63955A95A9F7AA3008F0A95F25
:100BB000A05DAF93F395611571058105910541F72E
:100BC000ED3211F4EF93F395F21718F43F93F39588
:100BD000FBCF8F91B5DFFA95E1F70895E991F9918F
:100BE0008591803021F0853219F0AADFF9CF089580
:100BF00020E0E89455915532C1F3503311F46894D4
:100C000055915A3348F4505390F3220F022E220F7D
:100C1000220F200D250FF4CF0EF421958991999183
:100C2000533619F3533729F1533559F1BC0188274D
:100C30009927E8945C3621F48991999168945591AB
:100C4000543639F446EF7EF077FF0DC08FEF9FEFFB
:100C50000AC055374AE039F0583540E121F05236A4
:100C600042E009F00895FF93EF937DDFEF91FF914C
:100C7000B7CFFF93EF93FC0181918030B9F360DF30
:100C8000FBCFFF93EF9368DFF1CFDF93CF93CDB727
:100C9000DEB72596A3DFCF91DF9108950C941D0A4E
:100CA0000C94610681FF02C0729801C0729A0C9484
:100CB000A9066A9A08950E9459060C941C0A81E0BC
:100CC000089581E008951F93CF93DF9300D000D063
:100CD0001F92CDB7DEB749835A8320918C01898159
:100CE0009A81211112C0662349F00E94321B182FED
:100CF000682F89819A810E94D71A03C00E94061B1F
:100D0000182F69817A81812F04C00E94321B69816A
:100D10007A810F900F900F900F900F90DF91CF91ED
:100D20001F910C944A07FC014081518162817381BB
:100D300084810C9463060E94C21C811102C00E942F
:100D4000751D0E94040E0C945B060E94030E0C9409
:100D50004E06089581E008950C94AA06CF93C82FFB
:100D60000E9452068C2F0E94AC06CF9108950895E0
:100D70000E94FD150E94B7062FEF84E39CE02150EE
:100D800080409040E1F700C000000C94AF1E0F932C
:100D90001F93CF93DF938C010E949306EC01B8015F
:100DA0000E945006882309F46AC0B801CE010E944F
:100DB000830E882309F463C0B801CE010E94C40EDB
:100DC000882309F45CC0F8018281882339F1C1309D
:100DD0008CE5D80759F0CE3DECE5DE07E1F0C11512
:100DE000FCE5DF07D9F40E94B80649C080911B02D8
:100DF000C82FC095C170C0FB80F980931B02CC2323
:100E000029F086EA92E00E94AC0539C084E992E0BC
:100E10000E94AC0535C00E94751D31C0C631DC454D
:100E200039F50E94B21B282FF80182814091000100
:100E300050910101882379F02A7A91E009F490E039
:100E400090933601911102C069E201C065E3CA01C5
:100E50000E94AE1D0AC080913601811102C069E274
:100E600001C065E3CA010E94B01D0E94FE1B07C0BD
:100E7000C801DF91CF911F910F910C945F06C0E0E4
:100E80008C2FDF91CF911F910F91089580E090E01A
:100E90000895089591E1799FF001112496E6899FC4
:100EA000E00DF11D1124E60FF11DEE0FFF1FE450C0
:100EB000FF4F859194910895880F991FFC01E95483
:100EC000FD4F859194910895CF93DF930E944A0737
:100ED0000E944509EC01811522E5920708F046C001
:100EE000811531E5930708F052C1883E910500F560
:100EF000803E910508F0C5C1883A910570F4853AA5
:100F0000910508F0B1C08130910509F4BAC108F427
:100F10006BC1049708F0B5C167C18F3B910508F418
:100F2000AEC0803C910508F45FC1805C910906C1A8
:100F3000811540E4940790F4C11580E3D80708F0C8
:100F400001C1C11521E0D20708F44EC1C11530E23C
:100F5000D30708F496C1CE019F70F0C0811540E51B
:100F6000940708F0F9C0DF70D06A8BC1C11589E51C
:100F7000D807B8F5C11528E5D20708F021C1C11579
:100F800034E5D307D0F42C2F26952695CE01837017
:100F90009927C115D34508F0FFC040E2249F900176
:100FA0001124C1E0D0E002C0CC0FDD1F8A95E2F72A
:100FB0002C2B3D2BE901DC6864C1C11585E5D80700
:100FC00008F4F9C0C11526E5D20708F00DC18C2F31
:100FD0000E94D9098F71C82FD0E0DC2FCC27D062B6
:100FE00050C1CD3B3CE5D30709F4F5C0E0F4CB3B61
:100FF0008CE5D80709F4E9C008F0EAC0C1153AE564
:10100000D30708F0F1C08C2F8F700E94D90994E0AB
:10101000D695C7959A95E1F7CF70D0E0DC2FCC2715
:10102000D069C82B2EC1C03C4CE5D40709F4D9C007
:1010300060F4CE3B2CE5D20709F4D0C0CF3BDC45B1
:1010400009F0D2C0C0E0D2ED1CC1CE01905681158E
:10105000904208F0C9C08D2F8F710E94D909DD27F9
:10106000D0628F71D82B0DC1853A910509F4BFC0AC
:10107000863A910509F0BEC0C2E8D0E402C1883AC0
:10108000910509F4BAC0893A910509F4B9C08A3AC0
:10109000910509F4B8C08B3A910509F4B7C08C3AB0
:1010A000910509F4B6C08B3B910509F4B5C08C3BA2
:1010B000910509F4B4C08D3A910509F4B3C0803BA1
:1010C000910509F4B2C08E3A910509F4B1C08F3A86
:1010D000910509F4B0C0813B910509F4AFC0823B92
:1010E000910509F4AEC0833B910509F4ADC0843B82
:1010F000910509F4ACC0853B910509F4ABC0863B72
:10110000910509F4AAC0873B910509F4A9C0883B61
:10111000910509F4A8C0893B910509F4A7C08D3B4E
:10112000910509F4A6C08E3B910509F4A5C08A3B40
:10113000910509F4A4C0C0E0D4E4A3C00E945C07F8
:10114000EC019FC0CE019927D3FF03C0EC01D86CFE
:1011500098C0EC01D06C95C0837021E030E002C0F3
:10116000220F331F8A95E2F73C68CE0174E0969512
:1011700087957A95E1F78370382BCF70C695C69521
:1011800080E2C89FE0011124C22BD32B7AC0D82F54
:10119000CC27C16FD06A75C040E2249F9001112412
:1011A000C1E0D0E002C0CC0FDD1F8A95E2F7C22B70
:1011B000D32BDA6866C0DC2FCC27C46FD06A61C03D
:1011C000DC2FCC27C06FD06A5CC0C0E0D4ED59C022
:1011D000C0E0D5ED56C0C0E0D1ED53C0C0E0D0EDC9
:1011E00050C0C0E0D3ED4DC0C0E0D0E04AC0C1E87F
:1011F000D0E447C0C3E8D0E444C0C2EED4E441C068
:10120000C9EED4E43EC0CAEED4E43BC0C5EBD4E49E
:1012100038C0C6EBD4E435C0C3EBD4E432C0C4EB71
:10122000D4E42FC0C7EBD4E42CC0CCECD4E429C068
:10123000CDECD4E426C0C3E8D5E423C0CAE8D5E4A5
:1012400020C0C2E9D5E41DC0C4E9D5E41AC0C1E29A
:10125000D6E417C0C3E2D6E414C0C4E2D6E411C099
:10126000C5E2D6E40EC0C6E2D6E40BC0C7E2D6E4BF
:1012700008C0CFE6D4E405C0C0E7D4E402C0CAE2A7
:10128000D6E4CE01DF91CF9108958238910569F1BE
:10129000B0F48133910509F46DC048F489329105A9
:1012A00009F463C08A32910509F469C00895853351
:1012B000910509F455C089339105B9F00895833E2D
:1012C000910569F138F4803E9105B1F0823E9105B7
:1012D00009F10895863E9105A9F1873E9105B9F17E
:1012E000843E910509F064C023C02091310220FDA5
:1012F0004FC021FD4DC008958091310280FD44C052
:101300008091320280FF44C08091310284FD42C04E
:1013100083EE4DC08091310282FF38C0F5CF8091BD
:10132000310282FD33C08091320280FD31C0ECCFAA
:101330008091320281FF32C08091310284FD2AC047
:1013400087EE35C08091310283FF26C0F5CF8091B2
:10135000310283FD21C08091320281FD1FC0ECCF9C
:101360008091310285FD1CC01DC08091310285FD38
:1013700019C016C08091310286FD16C017C0809139
:10138000310286FD13C010C089E311C082EE0FC088
:1013900080EE0DC080E00BC086EE09C084EE07C071
:1013A00089E205C085E303C08AE201C081E390E0E1
:1013B00008959091310292FF0DC0282F2871283096
:1013C00019F4877F846006C0282F2471243011F41B
:1013D0008B7F886093FF0DC0282F2871283119F466
:1013E000877E846106C0282F2471243111F48B7EFE
:1013F00088612091320220FF0DC0382F38713830BB
:1014000019F4877F816006C0382F3171313011F4B3
:101410008E7F886021FF0DC0282F2871283119F494
:10142000877E816106C0282F2171213111F48E7EC3
:10143000886194FD877E08950895089524E0829F31
:10144000C0011124FC01E95CFE4F60817181828141
:1014500093810895CF92DF92EF92FF920F931F93A3
:10146000CF93DF9388EC92E00E94AC0587E3E82EEF
:1014700081E0F82EC0E0D0E093ECC92E92E0D92EA6
:1014800009EB12E0DF93CF93DF92CF920E944506E3
:1014900080EC92E00E94AC05F7016191719181911D
:1014A00091917F010E94971C9F938F937F936F93DD
:1014B0001F930F930E94450687EB92E00E94AC05B4
:1014C00021968DB79EB70A960FB6F8949EBF0FBEB1
:1014D0008DBFC630D105B1F6DF91CF911F910F912D
:1014E000FF90EF90DF90CF900895AEE1B1E041E042
:1014F00050E026E02A0F8D91E82FE295EF70F0E0A2
:1015000031A18F70BA0102C0660F771F8A95E2F78A
:10151000CB01962F9095932391A392A1892B82A31F
:101520002A13E9CFADE0B1E041E050E021E12A0F1C
:101530008D91E82FE295EF70F0E031A18F70BA0144
:1015400002C0660F771F8A95E2F7CB01962F909520
:10155000932391A392A1892B82A32A13E9CFEFE4CD
:10156000F1E0A7E3B1E011921192119211921D9254
:101570001D921D921D9271E0E736F707A1F786E0F4
:101580000E94940B0C949B062F923F924F925F9275
:101590006F927F928F929F92AF92BF92CF92DF9283
:1015A000EF92FF920F931F93CF93DF93CDB7DEB7E8
:1015B00029970FB6F894DEBF0FBECDBF2EE131E004
:1015C0003A832983AFE4B1E01F8241E050E060E05C
:1015D00070E0BE83AD838D909D90AD90BC901397CD
:1015E0001D921D921D921C921397E981FA8181919F
:1015F000FA83E983E82FE295EF702E2F30E03987E8
:101600002887F90191A18F7022242394312C01C0E5
:10161000220C8A95EAF7892F822981A392A1822D33
:101620008095982392A3F0EAFA95F1F72DE031E046
:101630003C832B8300E010E0EB81FC81F190FC8384
:10164000EB832F2D22952F7030E0F90120A14D90D2
:101650005D906D907C90139730E0EF2DEF7002C09D
:1016600035952795EA95E2F720FD0BC06A017B01CD
:10167000002E04C0CC0CDD1CEE1CFF1C0A94D2F71B
:1016800003C0C12CD12C76014C285D286E287F2800
:101690004D925D926D927C9213970F5F1F4F0131B7
:1016A000110551F6E885F98591A1892381A382A1CD
:1016B000282A22A2149681E0ED81FE810081118109
:1016C0002281338180169106A206B30609F480E0D8
:1016D0003F81382B3F8381E0A736B80709F079CFE7
:1016E000232F46E067E371E08FE491E00E94950BC1
:1016F0000E94A5068F8129960FB6F894DEBF0FBE13
:10170000CDBFDF91CF911F910F91FF90EF90DF90B0
:10171000CF90BF90AF909F908F907F906F905F9091
:101720004F903F902F9008950895FF920F931F932D
:10173000CF93DF93F82ED92F8B01C42F222349F0AA
:1017400081E0809369010E94471E90936801809315
:101750006701809169018823F1F080916701909180
:1017600068010E945F1E0697B0F0EF2DFD2FD80193
:1017700080E090E04C2F50E08417950754F40191DD
:101780001191219131910D931D932D933D930196CC
:10179000F3CF10926901DF91CF911F910F91FF90CC
:1017A00008950E94C21C811102C00E94751D0E94F2
:1017B000FD1C80932C02282F26952695269530E037
:1017C0002430310524F08770886180932C02809149
:1017D0002C0280FF04C086958695869501C080E026
:1017E0000C94890D20912C02822F869586958695E2
:1017F000482F50E04330510554F48F5F982F990FD4
:10180000990F990F822F8770892B80932C028091DA
:101810002C02816080932C020E94011D80911B028A
:1018200080FF11C080912C028695869586951F9227
:101830008F9386E593E09F938F930E9445060F90C8
:101840000F900F900F9080912C028695869586952B
:101850000C94890D80912C02982F969596959695CB
:10186000A1F0915E990F990F990F8770892B809342
:101870002C02887F91E009F490E080912C0290FB8B
:1018800080F980932C020E94011D80911B0280FF31
:1018900011C080912C028695869586951F928F9314
:1018A0008EE393E09F938F930E9445060F900F90D5
:1018B0000F900F9080912C028695869586950C94BA
:1018C000890D80912C0280FD1FC0816080932C02C5
:1018D000813019F489E080932C0280912C020E94BF
:1018E000011D80911B0280FF08C086E193E09F9359
:1018F0008F930E9445060F900F9080912C02869541
:10190000869586950C94890D089580912C0280FF10
:1019100014C08E7F80932C020E94011D80911B02B7
:1019200080FF08C083E093E09F938F930E94450659
:101930000F900F9080E00C94890D0895CF93C09183
:101940002C02C17080911B0280FF0CC01F92CF93AC
:1019500088E293E09F938F930E9445060F900F902B
:101960000F900F90CC2319F0CF910C94850CCF9150
:101970000C94610C90912C02892F86958695869502
:101980008F5F8F719770843038F4880F880F880FBD
:10199000892B80932C0202C090932C0280912C0200
:1019A000887F91E009F490E080912C0290FB80F90F
:1019B00080932C020E94011D80911B0280FF11C0A8
:1019C00080912C028695869586951F928F938FEE37
:1019D00092E09F938F930E9445060F900F900F9077
:1019E0000F9080912C028695869586950C94890D92
:1019F000843008F083E0880F880F880F90912C02C4
:101A00009770892B80932C02887F91E009F490E0F5
:101A100080912C0290FB80F980932C020E94011D82
:101A200080912C028695869586950C94890DE82FD9
:101A3000E295EF70F0E032A1282F2F7081E090E066
:101A400001C0880F2A95EAF78095832382A3089521
:101A5000E82FE295EF70F0E032A1282F2F7081E09F
:101A600090E001C0880F2A95EAF7832B82A308959E
:101A70001F920F920FB60F9211242F933F934F9303
:101A80005F936F937F938F939F93AF93BF93EF93E6
:101A9000FF9380E90E94280DFF91EF91BF91AF91D4
:101AA0009F918F917F916F915F914F913F912F9176
:101AB0000F900FBE0F901F9018951F920F920FB6A8
:101AC0000F9211242F933F934F935F936F937F93C4
:101AD0008F939F93AF93BF93EF93FF938091880071
:101AE000909189008130914018F080E90E94170D93
:101AF000FF91EF91BF91AF919F918F917F916F91E6
:101B00005F914F913F912F910F900FBE0F901F90BB
:101B10001895CF92DF92EF92FF92CF93C82F843027
:101B2000B0F4811115C08091880090918900892BB3
:101B3000F9F080916F008D7F80936F0080916F002E
:101B40008E7F80936F0080E90E94280D11C0C3E052
:101B50008091880090918900892B51F480916F00C9
:101B6000826080936F0080916F00816080936F002E
:101B70002C2F30E0AFEFBFEF0E94942B23E030E03A
:101B800040E050E00E946C2B2C3784E1380741057F
:101B9000510530F4C90169E070E00E94582B29C05A
:101BA000DA01C9018A50974DAF4FBF4F6627782F92
:101BB000892F9A2F25EF38E241E050E00E946C2BEC
:101BC00069017A01CA01B9010E943C2B9B01AC0159
:101BD000C701B6010E943C2BBB27A92F982F872F46
:101BE000009721E0A207B10511F0BC0102C06FEF20
:101BF0007FEF7093890060938800CF91FF90EF9002
:101C0000DF90CF9008950895509A80E90E94170DB3
:101C100082E08093800089E1809381008FEF9FEFC5
:101C200090938700809386000C94D10B0F931F93A1
:101C3000CF93DF93C62FD42F022FFC0182818823FC
:101C4000C9F060936C010E94471E90936B018093D2
:101C50006A0180E28C0F883008F050C0C77081E0C4
:101C600001C0880FCA95EAF7DF91CF911F910F91BC
:101C70000C946D1310916C01161330C080916A01A1
:101C800090916B010E945F1E883C910538F5C0E27F
:101C9000CD0F1D17B9F080E2810F883040F4177026
:101CA00081E001C0880F1A95EAF70E947413C830CA
:101CB00048F481E09D2F977001C0880F9A95EAF74C
:101CC0000E946D13802F0E945A13C830B8F4D77049
:101CD00081E001C0880FDA95EAF70AC080E28C0F34
:101CE000883060F4C77081E001C0880FCA95EAF7B8
:101CF000DF91CF911F910F910C947413DF91CF91CD
:101D00001F910F9108959C01CB01233F4CE53407AF
:101D1000F9F078F4283DFCE53F07B9F0293D4CE5A2
:101D2000340711F1273D3C4531F526E241EE61EEE5
:101D30001EC0253FFCE53F0799F070F0263F3C456B
:101D4000D1F427E245EE66EE12C027E245EE0EC062
:101D500026E241EE60EE0BC027E245EE64EE07C0DE
:101D600026E241EE62EE03C028E241E065EE0E9409
:101D7000160E80E00895FC018281882319F01092EC
:101D80006C01089581E00895CF93DF93EC01FB018E
:101D90008281882309F41FC1C230FCE5DF0708F403
:101DA0001BC1C6319CE5D90738F09E012A5F3C452E
:101DB0002930310508F010C10E94DF1C90933202D7
:101DC00080933102C031ECE5DE0709F4C3C008F0AE
:101DD00041C0C8308CE5D80709F49AC0F0F4C4308B
:101DE000ECE5DE0709F487C068F4C2308CE5D8075B
:101DF00009F477C0C330DC4509F0E3C080913102BB
:101E0000826076C0C630ECE5DE0709F46EC008F0EB
:101E10007BC08091310288606BC0CC308CE5D807E4
:101E200009F485C068F4CA30ECE5DE0709F474C033
:101E300008F079C00E94FD1580913102806858C079
:101E4000CE308CE5D80709F476C008F07FC08091C9
:101E500031028BC0CB3FECE5DE0709F44FC018F52B
:101E6000C3318CE5D80709F47DC078F4C131ECE5C5
:101E7000DE0709F473C0C231DC4509F0A2C00E943C
:101E8000FD15809131028F7733C0C5318CE5D807BD
:101E900009F472C008F486C0CA3FDC4509F091C05D
:101EA000809132023EC0CF3FFCE5DF0709F45FC0FE
:101EB00058F4CD3F9CE5D90709F444C008F43FC06D
:101EC0008091320282602DC0C130FDE5DF0709F448
:101ED00075C008F45DC0C230DD4509F072C080E015
:101EE0006EC080913102816003C0809131028061B7
:101EF0008093310266C08091310211C0809132021C
:101F00008260809332025DC0809131028062F0CFA6
:101F1000809131028064ECCF8091310288608460CE
:101F2000E7CF8160EECF809131028E7FE1CF80914B
:101F300031028D7FDDCF80913102877FD9CF8091B3
:101F4000320218C0809132028D7FDBCF8091310246
:101F50008F7ECECF809131028F7DCACF80913102AA
:101F60008F7BC6CF80913102877F8B7FC1CF8091DD
:101F700032028D7F8E7FC5CF8091310282FB222776
:101F800020F991E0922790FB82F990FB83F9B0CF82
:101F900080913202982F909591708E7F892B90FBC3
:101FA00081F9AFCF0E94FD158091310287FB222776
:101FB00020F991E0922790FB87F99ACF81E00E9467
:101FC000771D80913102909132020E94F01C0E9494
:101FD000FD1580E001C081E0DF91CF9108959093DD
:101FE0007201809371010895E0917101F091720185
:101FF000309721F00190F081E02D099480E0089560
:10200000EF92FF920F931F93CF93DF93E0917101B3
:10201000F09172013097B1F18C010280F381E02DD3
:10202000099580911B0282FF2DC080FF04C086E7C6
:1020300093E00E94AC05E80118E080E7E82E83E019
:10204000F82E80911B0280FF0BC088811F928F9316
:10205000FF92EF920E9445060F900F900F900F9005
:10206000115021961111EDCF80911B0280FF0AC003
:102070008EE693E0DF91CF911F910F91FF90EF904B
:102080000C94AC05DF91CF911F910F91FF90EF90D1
:10209000089520916F01309170018217930771F0BC
:1020A0009093700180936F01E0917101F091720142
:1020B000309721F00680F781E02D09940895209152
:1020C0006D0130916E018217930771F090936E014C
:1020D00080936D01E0917101F0917201309721F0D0
:1020E0000084F185E02D0994089585B7806885BF47
:1020F00085B7806885BF0895089508950C947D1074
:1021000008950C9480100E9475100E947C100C940D
:102110007E1081E008950E943E1E0E94750A0E9472
:102120001E1F0E94D10B0C948110CF93C82F809159
:102130001B0282FF1EC080FF04C08FE893E00E9454
:10214000AC0580911B0280FF0CC01F92CF938AE8E0
:1021500093E09F938F930E9445060F900F900F90EE
:102160000F9080911B0280FF04C088E893E00E94DA
:10217000AC058C2FCF910C94AE064F925F926F926C
:102180007F929F92AF92BF92CF92DF92EF92FF9297
:102190000F931F93CF93DF93CDB7DEB72E970FB674
:1021A000F894DEBF0FBECDBF0E94C40A0E94891002
:1021B000811111C08FEF89838A831B820E94471E81
:1021C0008160782F9D838C8349815A816B818D81B9
:1021D0000E94981176C054E7A52E51E0B52E00E07C
:1021E00010E0902E802F0E941E0AF501C190D19020
:1021F000E190F1905F0126013701462657266826B7
:102200007926411451046104710431F40F5F1F4FAA
:102210000630110531F7CECF20911B0221FF0AC0F5
:102220006B877C878D879E870E942A0A9E858D8575
:102230007C856B85E0E0C12CD12C7601C394A7018D
:1022400096012421352146215721232B242B252B90
:1022500079F1EE839F8226013701462257226822B8
:10226000792281E045284628472809F480E08887BC
:102270000E94471E8160782F9A8789874E815F81EF
:1022800068858A850E949811000F111F000F111F89
:10229000F801EC58FE4F80819181A281B381C8265C
:1022A000D926EA26FB26C082D182E282F38209C0C7
:1022B000EF5FCC0CDD1CEE1CFF1CE13109F0BFCF41
:1022C000A5CF109173010E94F40F1817D9F00E9446
:1022D000F40F809373012E960FB6F894DEBF0FBEF5
:1022E000CDBFDF91CF911F910F91FF90EF90DF90C5
:1022F000CF90BF90AF909F907F906F905F904F90E6
:102300000C9495102E960FB6F894DEBF0FBECDBF7D
:10231000DF91CF911F910F91FF90EF90DF90CF90C1
:10232000BF90AF909F907F906F905F904F90089577
:10233000CF93DF93CDB7DEB72B970FB6F894DEBF00
:102340000FBECDBF4F83588769877A878B87DE01A1
:10235000119686E0FD0111928A95E9F785E0FE016C
:10236000379601900D928A95E1F749815A816B81E8
:102370007C818D819E810E94A7182B960FB6F894C0
:10238000DEBF0FBECDBFDF91CF910895FC018081EC
:1023900091810E94731B0895CF93DF931F92CDB755
:1023A000DEB7882309F423C1682F8238C1F40E9464
:1023B000F40F81FD1CC169E380910001909101013E
:1023C0000E94AE1D0E94FE1B2FEF81EE94E0215073
:1023D00080409040E1F700C0000069E319C08338F5
:1023E00011F50E94F40F80FD02C163E580910001A8
:1023F000909101010E94AE1D0E94FE1B2FEF81EE05
:1024000094E0215080409040E1F700C0000063E577
:1024100080910001909101010E94B01D0F90DF9109
:10242000CF910C94FE1B8438C1F40E94F40F82FDFE
:10243000DEC067E480910001909101010E94AE1D11
:102440000E94FE1B2FEF81EE94E0215080409040CF
:10245000E1F700C0000067E4DBCF8CEF860F813A24
:1024600070F4862F69830E94492369818111BFC05E
:1024700080910001909101010E94AE1DCFCF80E2BA
:10248000860F883048F4677081E001C0880F6A9534
:10249000EAF70E94B51BC2CF8BE5860F833088F424
:1024A000653A29F0663A31F083E890E005C081E8AA
:1024B00090E002C082E890E00F90DF91CF910C9401
:1024C000491088E5860F873108F091C0683A09F411
:1024D00045C0693A09F445C06A3A09F445C06B3A07
:1024E00009F445C06C3A09F445C06B3B09F445C09A
:1024F0006C3B09F445C06D3A09F445C0603B09F4F2
:1025000045C06E3A09F445C06F3A09F445C0613BD5
:1025100009F445C0623B09F445C0633B09F445C07A
:10252000643B09F445C0653B09F445C0663B09F4CA
:1025300045C0673B09F445C0683B09F445C0693BA9
:1025400009F445C06D3B09F445C06E3B09F445C034
:102550006A3B09F445C080E090E044C082EE90E020
:1025600041C089EE90E03EC08AEE90E03BC085EB32
:1025700090E038C086EB90E035C083EB90E032C04D
:1025800084EB90E02FC087EB90E02CC08CEC90E0C7
:1025900029C08DEC90E026C083E891E023C08AE852
:1025A00091E020C082E991E01DC084E991E01AC069
:1025B00081E292E017C083E292E014C084E292E0EC
:1025C00011C085E292E00EC086E292E00BC087E285
:1025D00092E008C08FE690E005C080E790E002C07E
:1025E0008AE292E00F90DF91CF910C945F100F90F0
:1025F000DF91CF910895882309F45BC0682F82385A
:1026000079F40E94F40F81FF54C069E380910001C6
:10261000909101010E94AE1D0E94FE1B69E310C053
:102620008338B1F40E94F40F80FF43C063E58091CA
:102630000001909101010E94AE1D0E94FE1B63E506
:1026400080910001909101010E94B01D0C94FE1B2D
:10265000843879F40E94F40F82FF2BC067E48091E4
:102660000001909101010E94AE1D0E94FE1B67E4D3
:10267000E7CF8CEF860F813A18F380E2860F88301F
:1026800048F4677081E001C0880F6A95EAF70E94FC
:10269000BB1BDCCF8BE5860F833020F480E090E01D
:1026A0000C944910685A673120F480E090E00C9453
:1026B0005F100895CF93C82F0E94CC11C93349F4FD
:1026C0002FEF87EE93E0215080409040E1F700C06B
:1026D00000008C2FCF910C94FB12882321F00E94D4
:1026E000B51B0C94FE1B0895882321F00E94BB1B90
:1026F0000C94FE1B0895BF92CF92DF92EF92FF924F
:102700000F931F93CF93DF937C01062FC72FFC01FC
:10271000158112951F70D281D1110E94D21B0E9487
:10272000AB1B882379F0DD2369F080E2800F8830CD
:1027300048F082E00E94491C0E94AB1B91E0B82E39
:10274000B92601C0B12CCC2EC2948FE0C822D12C66
:10275000F601EA5AFF4F0C948E2B8C2F807FCF709E
:10276000882311F0C295C07FDD2399F0CC2309F4B2
:102770008DC180E2800F883010F0011104C08C2FD1
:102780000E94B51B03C08C2F0E94C51B0E94FE1B1C
:102790007DC1802F0E94FB12CC2309F4C0C180E2CE
:1027A000800F883010F0011104C08C2F0E94BB1BD9
:1027B00003C08C2F0E94CB1B0E94FE1BB0C18C2F2C
:1027C000807FCF70803211F0C295C07F002319F056
:1027D0000130C9F022C0DD2371F0112341F0113026
:1027E00031F40E94E51B8C2B0E94EB1B98C10E94C8
:1027F000E51B8C2B1DC0112319F0113009F48FC17A
:102800000E94F41B25C0DD2321F0163008F087C19B
:102810000EC0153008F083C11BC0DD2361F0112309
:1028200031F0F701858180FF31C18F7085838C2F56
:102830000E946D1374C1112359F0093309F037C197
:10284000FFEF27EE83E0F15020408040E1F72DC1FB
:102850008C2F0E94741363C18C2F8695869583708C
:1028600090E0009719F0019761F059C1DD2321F044
:10287000802F9C2F937002C080E090E00E9449104E
:1028800059C1DD2321F0802F9C2F937002C080E07E
:1028900090E00E945F104EC18C2F837009F049C0F8
:1028A000D11144C1402F429546954770440F440FC3
:1028B000602F6F70862F90E0A0E0B0E0042E04C07F
:1028C000880F991FAA1FBB1F0A94D2F704FF10C0DC
:1028D0000FE010E020E030E004C0000F111F221FC5
:1028E000331F4A95D2F7009510952095309503C077
:1028F00000E010E09801C695C695C370D0E0BC0119
:10290000CD01602B712B822B932BC230D10559F056
:10291000C330D10559F0219719F00E94EC1906C176
:102920000E94DA1903C10E94FE1900C10E94D81941
:10293000FDC0DD2319F08C2F817001C0869588239E
:1029400009F4F4C0402F429546954770440F440F58
:10295000602F6F70862F90E0A0E0B0E0042E04C0DE
:10296000880F991FAA1FBB1F0A94D2F704FF10C03B
:102970000FE010E020E030E004C0000F111F221F24
:10298000331F4A95D2F7009510952095309503C0D6
:1029900000E010E09801C695C695C370D0E0BC0178
:1029A000CD01602B712B822B932BC230D10559F0B6
:1029B000C330D10559F0219719F00E94B21AB6C060
:1029C0000E94A01AB3C00E94C41AB0C00E94131A79
:1029D000ADC0CF70DD2339F08C2F0E94391A802FC3
:1029E0000E946D13A3C0802F0E9474138C2F0E942D
:1029F0005A1A9CC0023F01F128F4003F41F0013F08
:102A0000A1F040C0033FF9F0043F39F13BC0DD23A2
:102A100041F0153008F083C08C2F8F710E947F1A0F
:102A20007EC0163008F07BC0F7CFDD2339F08C2F45
:102A30008F710E94391A73C0DD23C9F38C2F8F71F7
:102A40000E945A1A6CC0DD2329F08C2F8F710E94CE
:102A5000241A65C00E941F1A62C0DD2349F0CF719D
:102A60008C2F0E94391A63E08C2F0E94341C57C0AF
:102A700081E00E94491C123008F451C082E00E949B
:102A8000491C4DC0DD2331F0112389F2802F0E94B3
:102A9000CC1145C0112391F2093349F49FEFE7EEC1
:102AA000F3E09150E040F040E1F700C00000802FDB
:102AB0000E94FB1234C04C2F4F70602FC7010E9440
:102AC00046070E944B1936C0D11134C0CF70D0E0F8
:102AD000C230D10599F03CF4209769F02197F9F4C0
:102AE0000E942A0C27C0C430D10571F054F02597FC
:102AF000B1F480E00AC00E94F20B1CC00E949E0C40
:102B000019C00E94BA0C16C083E00E94F80C12C0D3
:102B10004C2F4F70602FC7010E9449070BC028E05F
:102B2000C21AD10884E0C816D10420F40E94F40F20
:102B30000E94AE06BB20D1F00E94A71B80FD16C0EC
:102B4000F70112820E94A11B0E94391AC7010E943C
:102B5000C0150E94A11BDF91CF911F910F91FF9093
:102B6000EF90DF90CF90BF900C945A1ADF91CF91E5
:102B70001F910F91FF90EF90DF90CF90BF9008953D
:102B80000F931F93CF93DF93EC01888199812B8161
:102B90003C81232BB9F09F3F11F48F3F99F0CE0178
:102BA0000E94C706882371F0688179818A810E941A
:102BB0007E1B8C010E94D61A0E94D719B801CE0143
:102BC0000E947B13DF91CF911F910F9108950E9476
:102BD000D21B0E94E21B0E94FE1B80E090E00E943C
:102BE000491080E090E00C945F108091000190917A
:102BF00001010E94B21D0C94E7150E94C21B0C94A7
:102C0000F515E92FE295EF70F0E03297EE30F1051F
:102C1000B0F4EA59FF4F0C948E2B803F91F018F4DA
:102C2000883E68F40EC0843F51F40BC0883E48F0E3
:102C3000813F29F406C093FB882780F9089580E03E
:102C4000089581E008950E94731B0E940116089563
:102C5000CF93DF9300D000D01F92CDB7DEB70F9097
:102C60000F900F900F900F90DF91CF910895CF9319
:102C7000DF9300D000D000D0CDB7DEB726960FB6D8
:102C8000F894DEBF0FBECDBFDF91CF9108951F93A3
:102C9000CF93DF93C0918D0116E080918E01C8170C
:102CA00099F0D0E01C9FF0011D9FF00D1124E15719
:102CB000FE4F4081518162817381848195810E94A0
:102CC00037162196C770E9CFDF91CF911F910895F4
:102CD0004091BF015091C0016091C1017091C2014A
:102CE0008091C3019091C4010C9437168091C40166
:102CF00082958F7009F054C08091C101882309F436
:102D00004FC080918D01A0918E016091BF017091A3
:102D1000C0014091C2015091C301B6E08A1709F485
:102D20003FC090E041155105C1F17F3F11F46F3F65
:102D3000A1F1B89FF001B99FF00D1124E157FE4FAA
:102D4000218172132AC02081621327C022812111A0
:102D500024C0238134812417350710F42150310910
:102D6000241B350B283C3105C0F42091C4012F7081
:102D700020612093C40126E0289FF001299FF00DD7
:102D80001124EC56FE4F80818F70806180838FEB21
:102D900091E00E94C0150C94471601968770BECF33
:102DA0000895CF92DF92EF92FF920F931F93CF93EC
:102DB000DF93CDB7DEB762970FB6F894DEBF0FBED4
:102DC000CDBF8C0185E0F801DE011D9601900D92CA
:102DD0008A95E1F7D8014C9111965C911197129662
:102DE0006C9112971396CD90DC9014973091BF019F
:102DF0007091C0018091C2019091C301009709F4C4
:102E00006BC17F3F19F43F3F09F466C1E090C101F7
:102E1000EE2009F4C0C02091C401C816D90628F0DC
:102E2000F601E81BF90BCF0104C0809590958C0D3D
:102E30009D1DFF24F394883C910578F0F12C207FB0
:102E400009F0C6C07C2DD98AC88A89890E942816B3
:102E50008FEB91E00E94C015B1C0822F807F09F0F6
:102E600046C0751314C0341312C0611110C02F7006
:102E700020612093C4010E9468168FEB91E00E94AC
:102E8000C0158091C401D80115968C932EC0CD2811
:102E900019F15F3F11F44F3FF9F0F62E61111CC09C
:102EA00080918D0120918E0136E0821709F45AC07D
:102EB00090E0389FF001399FF00D1124E157FE4F4B
:102EC0007181571306C07081471303C0728171115D
:102ED00003C001968770E9CFF62E662309F427C157
:102EE0008091C40181608093C401F12C20C17513CD
:102EF00008C0341306C0611104C08091C401D80118
:102F0000C3C04D875E878D859E856A8B0E94231680
:102F10006A898823E1F16623D1F12091C401822FCF
:102F200082958F7090E0029774F08091BF0190912C
:102F3000C00198878F831986DB86CA862C87CE01CD
:102F400007960E94C01586E0F801AFEBB1E0019052
:102F50000D928A95E1F70E9476160E946816FF246A
:102F6000F394E5C04D875E878D859E850E94731B17
:102F7000292F22952F7030E0223031050CF0CBC084
:102F80009F7009F0C5C0805E883008F4D0C0C801C9
:102F90000E94C015E4CFC816D90608F453C0F60144
:102FA000E81BF90BCF01883C910508F450C0F12CC7
:102FB0007C2DD98AC88A89890E942816EFEBF1E016
:102FC00086E0DF011D928A95E9F70E946816AFC07E
:102FD000751314C0341312C0611110C08091C40164
:102FE000F8018583C8010E94C01586E0EFEBF1E08F
:102FF000DF011D928A95E9F7FE2C99C04D875E8707
:103000008D859E856A8B0E9423166A89882309F420
:10301000BECF662309F4BBCF2091C401822F8295D5
:103020008F7090E002970CF48ECF8091BF01909149
:10303000C0019A8389831B82DD82CC822E83CE01DC
:1030400001967FCF809590958C0D9D1DACCFF62E6F
:10305000662309F49CCF75132EC034132CC0209125
:10306000C40120FD1FC0822F82958F70D9F0D80136
:1030700015962C9315978F3049F08F5F982F929566
:10308000907F822F8F70892B15968C93C8010E9498
:10309000C01586E0F801AFEBB1E001900D928A9582
:1030A000E1F793CF86E0F801AFEBB1E001900D922C
:1030B0008A95E1F73CC04D875E878D859E850E948D
:1030C0002316811140CF8091C40181608093C40197
:1030D000C8010E94C0152BC0662309F458CF4D8744
:1030E0005E878D859E850E942316F82E882309F41D
:1030F0004ECF86E0F801AFEBB1E001900D928A95DA
:10310000E1F78FEB91E00E94C6110E9476165DCF29
:10311000811139CF0CC0243031050CF038CF9F70AD
:1031200009F431CFF8019581907F09F02CCF8F2DD4
:1031300062960FB6F894DEBF0FBECDBFDF91CF9180
:103140001F910F91FF90EF90DF90CF9008951F9304
:10315000CF93DF93CDB7DEB72C970FB6F894DEBFD1
:103160000FBECDBF4F83588769877A878B879C872F
:10317000CE0107960E94D116882369F08F81988529
:103180002A853B85232BF1F19F3F09F063C08F3FD8
:1031900009F060C037C086E0FE013796DE01119667
:1031A00001900D928A95E1F76F817885EA85FB851C
:1031B000309741F17F3F11F46F3F21F120918E0153
:1031C00030E0C90101968770992740918D0150E048
:1031D0008417950709F447C069837A83FD83EC83DC
:1031E00096E0929FD001939FB00D1124A157BE4F3E
:1031F000FE01319601900D929A95E1F780938E0130
:103200000E94471616E080918D0190918E018917DA
:10321000C1F1189FC001112481579E4F0E94D11601
:10322000882379F1E0918D011E9FF0011124E1576F
:10323000FE4F4081518162817381848195810E941A
:10324000371680918D0190E00196877099278093C1
:103250008D01D9CF4F81588569857A858B859C856D
:103260000E943716CFCF0E94FD1510928E0110924A
:103270008D01EFEBF1E086E0DF011D928A95E9F721
:10328000C1CF2C960FB6F894DEBF0FBECDBFDF9135
:10329000CF911F910895EF92FF920F931F93CF93B9
:1032A000DF938C01892B09F46CC0F12CEE24E3949C
:1032B000E8012196F8018491843740F4843008F0C5
:1032C00051C0813081F0823019F15BC0853709F43B
:1032D00044C0A8F19CE7980F903708F052C08F7750
:1032E0000E94FB1241C00E5F1F4FFE01C49180E29D
:1032F0008C0F883048F4C7708E2D01C0880FCA9596
:10330000EAF70E94D51B14C08C2F0E94CC112DC04F
:103310000E5F1F4FFE01C49180E28C0F883058F47D
:10332000C7708E2D01C0880FCA95EAF70E94DB1B7B
:103330000E94FE1B1AC08C2F0E94FB1216C00E5F4B
:103340001F4FFE01C491CC2381F08FE99FE00197CC
:10335000F1F700C00000C150F6CF0E5F1F4FFE0115
:10336000F49003C00E94CC118E018F2D882309F4A4
:103370009FCFEFE9FFE03197F1F700C000008150E7
:10338000F5CFDF91CF911F910F91FF90EF900895AE
:1033900008950C94C8190E94C91960930A02709389
:1033A0000B0280930C0290930D020C94E715089584
:1033B0000C94CB190F931F9300910A0210910B02EA
:1033C00020910C0230910D02602B712B822B932BDC
:1033D0001F910F910C94CB190F931F9300910A0228
:1033E00010910B0220910C0230910D026023712389
:1033F000822393231F910F910C94CB190F931F934A
:1034000000910A0210910B0220910C0230910D02E2
:1034100060277127822793271F910F910C94CB1956
:1034200008950C94101A0E94111A6093060270936A
:10343000070280930802909309020C94E71560E05C
:1034400070E0CB010C94131A0F931F9341E050E0EE
:1034500060E070E08A019B0104C0000F111F221F71
:10346000331F8A95D2F7C901B8011F910F910C94AF
:10347000131A0F931F9341E050E060E070E004C026
:10348000440F551F661F771F8A95D2F78091060259
:1034900090910702A0910802B09109028A019B0154
:1034A000082B192B2A2B3B2BC901B8011F910F9117
:1034B0000C94131A0F931F9341E050E060E070E00A
:1034C00004C0440F551F661F771F8A95D2F7409599
:1034D0005095609570958091060290910702A09199
:1034E0000802B09109028A019B01082319232A23AB
:1034F0003B23C901B8011F910F910C94131A0F932C
:103500001F9341E050E060E070E004C0440F551F9D
:10351000661F771F8A95D2F7809106029091070265
:10352000A0910802B09109028A019B01082719277E
:103530002A273B27C901B8011F910F910C94131A38
:103540000F931F9300910602109107022091080229
:1035500030910902602B712B822B932B1F910F91BD
:103560000C94131A0F931F930091060210910702F7
:103570002091080230910902602371238223932352
:103580001F910F910C94131A0F931F930091060231
:1035900010910702209108023091090260277127DB
:1035A000822793271F910F910C94131A089521E1FC
:1035B000929F800D1124A82FA695A695A695877099
:1035C00051E001C0550F8A95EAF785E0A89FD00128
:1035D000112420E030E070E0F901EA0FFB1FEB530B
:1035E000FE4F4081CB01022E02C0969587950A942A
:1035F000E2F781709927819584278523842780832A
:103600002F5F3F4F2530310539F7089521E1929F13
:10361000800D1124682F669566956695982F977092
:1036200085E0689FB001112440E050E080E0FA019D
:10363000E60FF71FEB53FE4F208130E0092E02C04A
:10364000369527950A94E2F721703327042E01C09E
:10365000220F0A94EAF7822B4F5F5F4F45305105E6
:1036600031F70895BF92CF92DF92EF92FF920F93BE
:103670001F93CF93DF938C01C0900A02D0900B026E
:10368000E0900C02F0900D028091060290910702EA
:10369000A0910802B0910902C82AD92AEA2AFB2A75
:1036A000CFE1D0E0D701C6010C2E04C0B695A79596
:1036B000979587950A94D2F780FF07C0BC2EB80172
:1036C0008C2F0E946407019719F4219758F7B12CA9
:1036D0008B2DDF91CF911F910F91FF90EF90DF9095
:1036E000CF90BF900895CF93DF93EC010E94321BDF
:1036F000BE010E946407DF91CF9108951F93CF937D
:10370000DF93EB0190918C01992321F0CB010E9472
:10371000731B13C0882349F0CB010E94321B182F62
:10372000682FCE010E94D71A04C0CB010E94061B4D
:10373000182FBE01812F0E946407DF91CF911F9146
:10374000089580910E0285958595859508958091BF
:103750000E028770089590910E02977081E009F42F
:1037600080E0089580911A02089590911A02892BA1
:1037700080931A020895809590911A02892380936C
:103780001A02089510921A02089590911902892B35
:10379000809319020895809590911902892380934E
:1037A0001902089510921902089590911802892B18
:1037B0008093180208958095909118028923809330
:1037C0001802089510921802089580910F0208952A
:1037D00008950C94E81B90910F02981721F08093A4
:1037E0000F020C94E91B089580910F02882329F0A1
:1037F00010920F0280E00C94E91B0895E091000103
:10380000F091010180911A028083E0910001F09112
:103810000101908180911902892B8083E091000140
:10382000F0910101908180911802892B8083809111
:103830000F02882381F0E0910001F0910101908155
:10384000892B808380910001909101010E947C1D51
:1038500081110E94F41B80910001909101010C9450
:10386000001008950C94311C98E0899F9001112458
:10387000262B20930E020E94391A80910E02859504
:10388000859585950C94321C10920E0280E00C9464
:10389000321C20910E028095822380930E02982F75
:1038A000977079F430E0482F082E000C550B241740
:1038B000350739F08595859585950E945A1A0C949F
:1038C000441C0895909335018093340108958295A6
:1038D000982F9C7C392F36953695282F237344E0FA
:1038E000249FC0011124932F982B292F2A7A2695E3
:1038F000892F8575880F822B08951F93CF93DF93AF
:103900001F92CDB7DEB799830E94671C182F99814B
:10391000892F0E94671C212F30E0322F2227A90116
:10392000482BCA010F90DF91CF911F910895CF923C
:10393000DF92EF92FF920F931F93CF93DF936B0170
:103940007C01CB010E947D1CEC01C7010E947D1C03
:10395000AC01CE01A0E0B0E0DC019927882760E04F
:1039600070E08C019D01042B152B262B372BC901F0
:10397000B801DF91CF911F910F91FF90EF90DF90F1
:10398000CF90089580E090E00E94B62B21E08C3E1D
:103990009E4F09F020E0822F089582E090E00C9481
:1039A000AE2B682F82E090E00C94BC2B83E090E07B
:1039B0000C94AE2B682F83E090E00C94BC2BCF933B
:1039C00084E090E00E94AE2BC82F81E290E00E943C
:1039D000AE2B2C2F30E0A901582BCA01CF910895AE
:1039E000CF93C92F682F84E090E00E94BC2B6C2FEE
:1039F00081E290E0CF910C94BC2B86E090E00C9497
:103A0000AE2B682F86E090E00C94BC2BAB01BC0180
:103A10008FE090E00C94CE2BAB01BC0183E190E0F1
:103A20000C94CE2B60E070E0CB010C940C1D60E098
:103A300070E0CB010E94061D0C94121D6CEE7EEF0F
:103A400080E090E00E94DA2B60E082E090E00E944B
:103A5000BC2B60E083E090E00E94BC2B10920A0235
:103A600010920B0210920C0210920D0260E084E0A2
:103A700090E00E94BC2B60E081E290E00E94BC2BB1
:103A800060E085E090E00E94BC2B60E086E090E082
:103A90000E94BC2B6FEF87E090E00E94BC2B40E0BF
:103AA00050E0BA0188E090E00E94CE2B60E08DE00B
:103AB00090E00E94BC2B40E050E0BA0188E190E029
:103AC0000E94CE2B60E087E190E00E94BC2B40E09A
:103AD00050E0BA018CE190E00E94CE2B60E080E2E1
:103AE00090E00E94BC2B0C94171D0C941E1D682F97
:103AF0008EE090E00C94BC2BFC01329697E080E0C5
:103B0000915029F021912223D9F38F5FF9CF0895A5
:103B10009C01FC0132969FEF80E04191461789F0AD
:103B20009F3F19F4411101C0982F8F5F8630A9F78C
:103B30009F3F39F0F901E90FF11D97FDFA95628376
:103B400008950895FC01329608962081261301C03D
:103B500010823196E817F907C1F708950C94881D73
:103B60000C94A21D029626E0FC0111922A95E9F719
:103B7000089508950C94B91D0E94BA1D80913702D2
:103B8000843061F110921C0220E488E190E00FB6CD
:103B9000F894A895809360000FBE2093600080E0A9
:103BA0000E94890D80E00E94AE060E94BA1D83B774
:103BB000817F846083BF83B7816083BF7894889559
:103BC00083B78E7F83BF0FB6F894A895809160006D
:103BD000886180936000109260000FBE0895089580
:103BE0000895CF930E94EF1D0E94C40A0E94F01D09
:103BF000C0E08C2F0E941E0A672B682B692B29F4CA
:103C0000CF5FC630B1F780E001C081E0CF91089569
:103C100008950C94081E0E94FD150E94D10B0E946D
:103C2000F40F0E94AE060C94091E1F920F920FB65D
:103C30000F9211248F939F93AF93BF9380911C0297
:103C4000811113C080912D0290912E02A0912F021C
:103C5000B09130024196A11DB11D80932D02909329
:103C60002E02A0932F02B0933002BF91AF919F918B
:103C70008F910F900FBE0F901F90189582E084BD1A
:103C800093E095BD9AEF97BD80936E0008952FB78E
:103C9000F89480912D0290912E02A0912F02B09164
:103CA00030022FBF08952FB7F89460912D027091C4
:103CB0002E0280912F02909130022FBF0895CF9253
:103CC000DF92EF92FF920F931F932FB7F8944091DA
:103CD0002D0250912E0260912F02709130022FBF61
:103CE0006A017B01EE24FF248C0120E030E0C01645
:103CF000D106E206F30610F4415051099A01281B3F
:103D0000390BC9011F910F91FF90EF90DF90CF9079
:103D1000089578941F920F920FB60F9211248F93EB
:103D20009F93AF93BF9380912D0290912E02A0910B
:103D30002F02B09130020196A11DB11D80932D027A
:103D400090932E02A0932F02B0933002BF91AF91B7
:103D50009F918F910F900FBE0F901F90189581E04B
:103D60008093E00080E28093D8001092C9008FE138
:103D70009EE40197F1F700C0000087E090EBDC01C2
:103D80008093400290934102A0934202B093430279
:103D90009CE088E10FB6F894A895809360000FBE70
:103DA00090936000FFCF8F929F92AF92BF92EF925D
:103DB000FF920F931F93CF93C0E0E82EF12C8C2F2E
:103DC0000E941E0A4B015C0100E010E0D501C40115
:103DD000002E04C0B695A795979587950A94D2F7BB
:103DE00080FD06C00F5F1F4F0131110579F70AC032
:103DF000602F7C2F80E00E944A07E816F90691F7B1
:103E000081E004C0CF5FC630D1F680E0CF911F9132
:103E10000F91FF90EF90BF90AF909F908F9008957B
:103E2000CF93C82F8CE20E94D31E882321F08C2FC1
:103E3000CF910C94D31E80E0CF910895CF930E9430
:103E4000C21C811102C00E94751D89EA93E00E9484
:103E5000AC05C5E6C15049F00E94C40A8FE39CE955
:103E60000197F1F700C00000F5CF82EA93E00E94CD
:103E7000AC0589E20E94101F811120C18AE20E94D4
:103E8000101F81110E94751D85E00E94101F811175
:103E90000E94AF1E0E94CD1C80931B0287E00E94EF
:103EA000101F8823A9F18BE10E94101F882351F075
:103EB00080911B0281FB222720F991E0922790FB41
:103EC00081F90EC08EE00E94101F882361F080915E
:103ED0001B0282FB222720F991E0922790FB82F9B6
:103EE00080931B0215C080E10E94101F90911B025D
:103EF000882341F093FB222720F981E0822780FB71
:103F000093F904C0892F809580FB90F990931B0250
:103F100080911B020E94D11C0E94DF1C90933202F0
:103F20008093310280EE0E94101F882341F080911F
:103F30003102982F909590FB80F98093310289E3AC
:103F40000E94101F882359F08091310281FB2227A3
:103F500020F991E0922790FB81F98093310282EE63
:103F60000E94101F882359F08091310282FB222782
:103F700020F991E0922790FB82F98093310286EE3E
:103F80000E94101F882359F08091310283FB222761
:103F900020F991E0922790FB83F98093310283EE20
:103FA0000E94101F882359F08091310284FB222740
:103FB00020F991E0922790FB84F98093310285E308
:103FC0000E94101F882359F08091310285FB22271F
:103FD00020F991E0922790FB85F98093310281E3EB
:103FE0000E94101F882359F08091310286FB2227FE
:103FF00020F991E0922790FB86F98093310281E1CC
:104000000E94101F882359F08091310287FB2227DC
:1040100020F991E0922790FB87F9809331028091FB
:104020003102909132020E94F01C87E20E94101F20
:10403000C82F8EE10E94101F8111C2608FE10E9483
:10404000101F8111C46080E20E94101F8111C8609E
:1040500081E20E94101F8111C06182E20E94101F44
:104060008111C06283E20E94101F8111C06484E24A
:104070000E94101F882311F0C06802C0CC2329F0D1
:104080008C2F0E94DA1C6C2F03C00E94D61C682F54
:1040900070E080E090E00E94D8198FE00E94101F2D
:1040A000882319F081E00E94771D85E10E94101F8E
:1040B000882321F080E0CF910C94771DCF91089553
:1040C000CF93C82F1F928F9384EC93E09F938F938D
:1040D0000E94450681E090E0A0E0B0E0BC01CD0187
:1040E00004C0660F771F881F991FCA95D2F70E94D8
:1040F000D8190F900F900F900F90CF910C94FD1541
:10410000CF93DF938B3109F435C208F0CBC18B30EC
:1041100009F4EEC108F0A1C1863009F4ECC120F425
:10412000853009F4FAC1A8C2873009F408C2883082
:1041300009F0A2C28DE399E00E94AC058EE898E0F8
:104140000E94AC050E94D61C1F928F938BE898E0CA
:104150009F938F930E94450689E898E00E94AC05E2
:104160000E94CD1CC82F86E798E00E94AC051F92E4
:10417000CF9381E798E09F938F930E9445068FE647
:1041800098E00E94AC0585E698E00E94AC058C2F73
:1041900081701F928F9382E698E09F938F930E9485
:1041A000450680E698E00E94AC0586E598E00E940E
:1041B000AC05C1FB882780F91F928F9383E598E0B7
:1041C0009F938F930E94450681E598E00E94AC057D
:1041D00085E498E00E94AC05C2FB882780F91F9215
:1041E0008F9382E498E09F938F930E94450680E42A
:1041F00098E00E94AC0587E398E00E94AC05C3FB01
:10420000CC27C0F91F92CF9384E398E09F938F93BC
:104210000E94450682E398E00E94AC050E94DF1CE4
:10422000EC018EE198E00E94AC05DF93CF9389E129
:1042300098E09F938F930E94450687E198E00E9443
:10424000AC058EEF97E00E94AC058C2F81701F9219
:104250008F938BEF97E09F938F930E9445068DB7C6
:104260009EB780960FB6F8949EBF0FBE8DBF89EFA4
:1042700097E00E94AC0582EE97E00E94AC05C1FB7E
:10428000882780F91F928F938FED97E09F938F93EC
:104290000E9445068DED97E00E94AC058BEC97E0FF
:1042A0000E94AC058D2F81701F928F9388EC97E050
:1042B0009F938F930E94450686EC97E00E94AC0581
:1042C00084EB97E00E94AC05D695D1701F92DF93E6
:1042D00081EB97E09F938F930E9445068FEA97E0CA
:1042E0000E94AC058DE997E00E94AC05C2FB8827CF
:1042F00080F91F928F938AE997E09F938F930E9492
:10430000450688E997E00E94AC0586E897E00E94A0
:10431000AC05C3FB882780F91F928F9383E897E051
:104320009F938F930E94450681E897E00E94AC0519
:1043300087E797E00E94AC05C4FB882780F91F92AD
:104340008F9384E797E09F938F930E94450682E7BF
:1043500097E00E94AC0580E697E00E94AC05C5FBA3
:10436000882780F91F928F938DE597E09F938F9315
:104370000E9445068BE597E00E94AC058FE397E02D
:104380000E94AC05C6FB882780F91F928F938CE3AF
:1043900097E09F938F930E9445068DB79EB78096B6
:1043A0000FB6F8949EBF0FBE8DBF8AE397E00E94C0
:1043B000AC0582E397E00E94AC05C7FBCC27C0F9AF
:1043C0001F92CF938FE297E09F938F930E944506B1
:1043D0008DE297E00E94AC050E94FD1CC82F86E18B
:1043E00097E00E94AC051F92CF9381E197E09F93E5
:1043F0008F930E9445068FE097E00E94AC0585E010
:1044000097E00E94AC058C2F81701F928F9382E001
:1044100097E09F938F930E94450680E097E00E946B
:10442000AC0587EF96E00E94AC05C695C695C6958B
:104430001F92CF9384EF96E09F938F930E9445063F
:1044400082EF96E00E94AC058DB79EB740960FB6FE
:10445000F8949EBF0FBE8DBF49C0803109F4B4C02F
:1044600020F48E3009F49AC007C1863109F4C7C020
:10447000893109F001C185E295E00E94AC058DE02B
:1044800095E00E94AC0581ED94E00E94AC0587E9BF
:1044900094E00E94AC0580E694E00E94AC0582E3C3
:1044A00094E08FC08A32E1F060F4873209F4E0C012
:1044B00028F48E3108F4E0C08D51DBC0893269F1F7
:1044C000DBC0833448F48A3308F0D0C0853309F464
:1044D000CFC0883369F0D0C0833409F4C9C0CCC0E0
:1044E0008CE299E00E94AC050E94751DC1E0C9C034
:1044F0008FE495E066C080911B02817F8E7F809360
:104500001B0284E395E00E94AC0588E299E00E94DA
:10451000AC0581E080931D02E9CF0E94FD158CE07F
:1045200099E00E94AC059FEF23ED80E3915020407D
:104530008040E1F700C000000E94AF1ED7CF8091FD
:104540001B02C82FC095C170C0FB80F980931B026D
:10455000CC2329F080E099E00E94AC0592C083EF63
:1045600098E00E94AC0580911B02897F877F809331
:104570001B02BCCF90911B0291FBCC27C0F981E0BC
:10458000C827892FC0FB81F980931B02CC2319F027
:1045900086EE98E029C088ED98E013C090911B0248
:1045A00092FBCC27C0F981E0C827892FC0FB82F994
:1045B00080931B02CC2319F089EC98E015C089EB9D
:1045C00098E00E94AC0592CF90911B0293FBCC2700
:1045D000C0F981E0C827892FC0FB83F980931B02B3
:1045E000CC2351F08DEA98E00E94AC0580911B022B
:1045F000816080931B0245C080EA98E0E2CF84E2AC
:1046000094E00E94AC050E94F40F1F928F938AE001
:1046100094E09F938F930E94450680910C011F9216
:104620008F9383EF93E09F938F930E944506809131
:104630002A021F928F9380EE93E09F938F930E94A4
:1046400045060E94531E9F938F937F936F9389EC2F
:1046500093E09F938F930E9445068DB79EB7429635
:104660000FB6F8949EBF0FBE8DBF40CF895301C0D7
:1046700080E00E9460203ACF8EE998E00E94AC056D
:10468000C0E08C2FDF91CF91089580E0089580E005
:104690000895CF93C82F80911D02882319F081308F
:1046A00031F038C00E94B21B8232B1F504C00E94C2
:1046B000B21B823261F48C2F0E944523811104C009
:1046C0008C2F0E94802024C081E090E021C08C2F9C
:1046D0000E94472381111BC0C43189F018F4CB30EC
:1046E00029F010C0C93259F0C83361F484E395E071
:1046F0000E94AC0580EC93E00E94AC0508C01092CB
:104700001D020CC08EEB93E00E94AC0507C081E057
:10471000817006C010921D0280E002C080E0F8CFD8
:10472000CF91089580912902089508959FB7F89434
:10473000109220029FBF90913702943009F057C029
:104740009091E9009F703091EC00232F217030FD93
:1047500020E8922B23E02093E9002091EB0020FF3A
:1047600043C02091EE0027FF3FC020911E0222236C
:1047700021F02091E80025FF37C010921E0226E0AC
:104780003091E80035FD15C030913702343061F5C5
:104790003091EB0035FD28C0215021F481E0809359
:1047A0001E0222C0EFE9FFE03197F1F700C00000E0
:1047B000E7CF8093F1008091E80085FD0AC08091E9
:1047C000E80080FFFCCF8091E8008E778093E800BE
:1047D00006C08FB7F89421E0209320028FBF9F700E
:1047E0009093E90080E008959F709093E9008FEF27
:1047F00008950F931F93CF93DF9300D01F92CDB7EF
:10480000DEB78C010E948426823011F0843021F5BD
:1048100084E089831B830A8382E08093E9008FEF21
:104820009091E800815095FD06C095ED9A95F1F7BD
:1048300000008111F5CF8091E80085FF0DC040E0B8
:1048400050E063E070E0CE0101960E94A1268091C5
:10485000E8008E778093E8000F900F900F90DF9123
:10486000CF911F910F910895CF93DF9300D01F92A6
:10487000CDB7DEB720913702243031F523E029830C
:10488000805891099B838A8382E08093E9008FEFAF
:104890009091E800815095FD06C095ED9A95F1F74D
:1048A00000008111F5CF8091E80085FF0DC040E048
:1048B00050E063E070E0CE0101960E94A126809155
:1048C000E8008E778093E8000F900F900F90DF91B3
:1048D000CF910895CF93DF93EC010E94842682301C
:1048E00011F0843039F581E08093E9008FEF9091E9
:1048F000E800815095FD06C095ED9A95F1F700000E
:104900008111F5CF8091E80085FF14C040E050E0B0
:1049100068E070E0CE010E94A1268091E8008E77C9
:104920008093E80088E0FE01A1E2B2E001900D92E0
:104930008A95E1F7DF91CF9108958DE699E00E9485
:10494000AC0580913602811109C00E9436280E9470
:1049500093288091E20084608093E200089589E6C4
:1049600099E00E94AC0510923602089585E699E020
:104970000C94AC0581E699E00C94AC058DE599E0CA
:104980000E94AC050C940B1E20911F022F5F822FFA
:1049900062E30E944C2B992319F020931F02089583
:1049A00010921F0280912002882371F180913702BA
:1049B000843041F58091E9008F702091EC00922FB6
:1049C000917020FD90E8892B93E09093E9009091FD
:1049D000EB0090FF14C09091EE0097FF10C09091F3
:1049E000E80095FF03C01092F100F9CF9091E80024
:1049F00090FF05C09091E8009E779093E8008F703B
:104A00008093E90010922002089542E061EC81E079
:104A10000E94B02742E261EC82E00E94B02742E2AD
:104A200061EC83E00C94B02780913902833009F463
:104A300060C030F4813071F0823009F499C008957B
:104A40008A3009F485C08B3009F46BC0893009F0D5
:104A5000A7C020C080913802813A09F0A1C080919E
:104A6000E800877F8093E80080913C0290913D02AE
:104A7000892B21F468E081E292E003C060E080E0ED
:104A800090E070E00E94EC268091E8008B778093A4
:104A9000E800089580913802813209F081C0809148
:104AA0003C0290913D02029708F07AC08091E800A4
:104AB000877F8093E8008091E80082FD05C08091A7
:104AC00037028111F8CF6CC02091F3008091F20081
:104AD00090E0922B029729F48091F1008B7F813036
:104AE00021F48091F100809329028091E8008B7776
:104AF00053C080913802813A09F052C080913C0243
:104B000090913D02892B09F04BC08091E800877F8E
:104B10008093E8008091E80080FFFCCF80910C0139
:104B200036C0809138028132D9F580913C02909153
:104B30003D02892BA9F58091E800877F8093E800EA
:104B40000E94E52780913A0280930C010C94FD1598
:104B500080913802813221F58091E800877F80932F
:104B6000E8000E94E52780913B0280932A02089585
:104B700080913802813AA1F48091E800877F809388
:104B8000E8008091E80080FFFCCF80912A028093AA
:104B9000F1008091E8008E778093E8000C94E5277F
:104BA000089584B7877F84BF0FB6F894A895809145
:104BB0006000886180936000109260000FBE90E0FA
:104BC00080E80FB6F89480936100909361000FBE67
:104BD0000E9483100E9436280E9493288091E20050
:104BE00084608093E20086E993E20E94621C7894DC
:104BF0000E94212B0E948B1082E091E00E94EF0F17
:104C00008CE499E00E94AC0580913702853089F4EC
:104C100088E499E00E94AC050E94BC1D8091350299
:104C2000882391F30E94F11D882371F30E948B2643
:104C3000EBCF0E94BD10E8CF0C941E26292F3327FE
:104C400023303105C9F064F42130310581F0223080
:104C5000310509F049C08BE590E029EA39E048C008
:104C60002132310521F12232310571F13DC082E15D
:104C700090E024E03AE03CC099278130910571F042
:104C80002CF4892B89F5E5EAF9E00DC08230910515
:104C900041F0039749F5E1E7F9E005C0EBE8F9E0F9
:104CA00002C0E7E7F9E0849190E09F0121C0633002
:104CB0007105D0F4660F771FFB01E35DFE4F208185
:104CC000318189E090E014C06330710568F4FB0124
:104CD000EE0FFF1FE95DFE4F20813181FB01EC5D8E
:104CE000FE4F808190E004C080E090E020E030E062
:104CF000FA0131832083089580913702843011F0C6
:104D000081E0089582E0089580912B02811102C014
:104D10000C947C26089580E189BD82E189BD09B4A7
:104D200000FEFDCF8091D8008F7D8093D8008091C8
:104D3000E00082608093E0008091E00081FDFCCF84
:104D40000895CF92DF92EF92FF920F931F93CF932C
:104D5000DF93EC018B016A010E940428811133C0AA
:104D6000C114D10439F0F60180819181081B190B1F
:104D7000C80FD91FE12CF12C0115110519F18091F3
:104D8000E80085FD16C08091E8008E778093E800EA
:104D9000C114D10449F0F60180819181E80EF91E19
:104DA000F182E08285E00FC00E940428882321F36D
:104DB0000AC089918093F10001501109FFEFEF1AA9
:104DC000FF0ADACF80E0DF91CF911F910F91FF9022
:104DD000EF90DF90CF90089520913E0230913F02F6
:104DE0002617370748F06115710539F42091E8005E
:104DF0002E772093E80001C0B90140E061157105EC
:104E0000A9F120913702222309F443C0253009F487
:104E100042C02091E80023FD40C02091E80022FD1F
:104E200032C02091E80020FFE9CF4091F3002091AB
:104E3000F20030E0342BFC01CF016115710559F00F
:104E40002830310540F481918093F100615071095F
:104E50002F5F3F4FF1CF41E02830310509F040E0AE
:104E60002091E8002E772093E800C8CF4111C9CFE8
:104E70000AC080913702882361F0853061F080910B
:104E8000E80083FD0AC08091E80082FFF2CF80E055
:104E9000089582E0089583E0089581E008952091C7
:104EA0003E0230913F022617370748F06115710521
:104EB00039F42091E8002E772093E80001C0B90171
:104EC000FC0120E06115710591F180913702882382
:104ED00009F440C0853009F43FC08091E80083FDAB
:104EE0003DC08091E80082FD2FC08091E80080FFE6
:104EF000E9CF2091F3008091F20090E0922B6115B0
:104F0000710559F08830910540F424912093F10007
:104F10003196615071090196F2CF21E0089709F0AE
:104F200020E08091E8008E778093E800CBCF2111BC
:104F3000CCCF0AC080913702882361F0853061F0C0
:104F40008091E80083FD0AC08091E80082FFF2CFE3
:104F500080E0089582E0089583E0089581E0089557
:104F6000982F973058F59093E900981739F0709181
:104F7000EC002091ED005091F00003C0242F762F1B
:104F800050E021FF19C03091EB003E7F3093EB00E1
:104F90003091ED003D7F3093ED003091EB003160BA
:104FA0003093EB007093EC002093ED005093F000F1
:104FB0002091EE0027FF07C09F5FD3CF8F708093B3
:104FC000E90081E0089580E008958091380287FF2C
:104FD00011C08091E80082FD05C0809137028111E7
:104FE000F8CF11C08091E8008B770BC08091370219
:104FF000882349F08091E80080FFF8CF8091E80095
:105000008E778093E80008952091E4003091E500C8
:1050100095E64091EC00842F817040FF22C0809182
:10502000E80080FD1CC080913702882391F0853014
:1050300091F08091EB0085FD10C04091E40050910B
:10504000E5004217530729F39A01915011F784E0C4
:10505000089582E0089583E0089581E0089580E056
:1050600008954091E80042FFDECF08950E94A428F1
:105070000E94AC28E0EEF0E0808181608083E8ED62
:10508000F0E080818F77808319BCA7EDB0E08C9130
:105090008E7F8C9380818F7E80831092360208955C
:1050A0000F931F93CF93DF930E94A4280E94AC28F4
:1050B000C8EDD0E088818F77888388818068888375
:1050C00088818F7D888319BC109237021092330239
:1050D000109235021092340200EE10E0F801808147
:1050E0008B7F808388818160888342E060E080E0FC
:1050F0000E94B027E1EEF0E080818E7F8083E2EEB7
:10510000F0E0808181608083808188608083F80105
:1051100080818E7F8083888180618883DF91CF91B9
:105120001F910F910895E8EDF0E080818F7E8083DC
:10513000E7EDF0E080818160808384E082BF81E0E0
:10514000809336020C945028E8EDF0E080818E7F49
:1051500080831092E20008951092DA001092E1002C
:1051600008951F920F920FB60F9211242F933F9321
:105170004F935F936F937F938F939F93AF93BF935F
:10518000EF93FF938091E10082FF0BC08091E200DA
:1051900082FF07C08091E1008B7F8093E1000E9435
:1051A000C4248091DA0080FF1FC08091D80080FF66
:1051B0001BC08091DA008E7F8093DA008091D90045
:1051C00080FF0DC080E189BD82E189BD09B400FE88
:1051D000FDCF81E0809337020E949D2405C019BC59
:1051E000109237020E94AF248091E10080FF19C025
:1051F0008091E20080FF15C08091E2008E7F809355
:10520000E2008091E20080618093E2008091D8000A
:1052100080628093D80019BC85E0809337020E9499
:10522000BA248091E10084FF30C08091E20084FFC5
:105230002CC080E189BD82E189BD09B400FEFDCFAB
:105240008091D8008F7D8093D8008091E1008F7E7F
:105250008093E1008091E2008F7E8093E200809154
:10526000E20081608093E20080913302882311F094
:1052700084E007C08091E30087FD02C081E001C0A7
:1052800083E0809337020E94BE248091E10083FF77
:1052900029C08091E20083FF25C08091E100877FD3
:1052A0008093E10082E08093370210923302809174
:1052B000E1008E7F8093E1008091E2008E7F8093F9
:1052C000E2008091E20080618093E20042E060E0D1
:1052D00080E00E94B0278091F00088608093F00009
:1052E0000E94B624FF91EF91BF91AF919F918F9152
:1052F0007F916F915F914F913F912F910F900FBED2
:105300000F901F9018951F920F920FB60F921124B5
:105310002F933F934F935F936F937F938F939F93BD
:10532000AF93BF93CF93DF93EF93FF93C091E900C7
:10533000CF708091EC00D82FD17080FDD0E8109212
:10534000E9008091F000877F8093F00078940E94BC
:10535000C7291092E9008091F00088608093F000E6
:10536000CD2BCF70C093E900FF91EF91DF91CF91EA
:10537000BF91AF919F918F917F916F915F914F916D
:105380003F912F910F900FBE0F901F9018951F9374
:10539000CF93DF93CDB7DEB7AA970FB6F894DEBFF1
:1053A0000FBECDBFE8E3F2E088E08E0F9091F100F0
:1053B00091938E13FBCF0E9414258091E80083FF08
:1053C00028C18091380290913902492F50E04A302B
:1053D000510508F01EC1FA01EC58FF4F0C948E2BBA
:1053E000803821F0823809F014C108C0809134025D
:1053F00090913502992389F082600FC080913C0220
:105400008F70873008F005C18093E9008091EB0030
:1054100085FB882780F91092E9009091E800977F3A
:105420009093E8008093F1001092F100D0C0282FF3
:105430002D7F09F0EEC0882319F0823061F0E9C0B9
:1054400080913A02813009F0E4C0933009F080E0A5
:10545000809335022EC080913A0281112AC080913A
:105460003C028F702FEF280F263008F0D2C08093B7
:10547000E9002091EB0020FF1CC0933021F48091C3
:10548000EB00806214C09091EB0090619093EB0070
:1054900021E030E0A90102C0440F551F8A95E2F7D0
:1054A0004093EA001092EA008091EB0088608093BC
:1054B000EB001092E9008091E800877F8093E8007C
:1054C0000E94E527A6C08111A4C010913A021F775F
:1054D0008091E3008078812B8093E3008091E80045
:1054E000877F8093E8000E94E5278091E80080FF95
:1054F000FCCF8091E30080688093E300111102C02B
:1055000082E001C083E08093370283C080588230FC
:1055100008F07FC080913A0290913B028C3D53E0AD
:10552000950779F583E08A838AE289834FB7F894F7
:10553000DE01139620E03EE051E2E32FF0E05093CD
:105540005700E49120FF03C0E295EF703F5FEF70DA
:105550008E2F90E0EA3010F0C79601C0C0968D9370
:105560009D932F5F243149F74FBF8091E800877FDB
:105570008093E8006AE270E0CE0101960E94EC267A
:1055800015C060913C0270913D02AE014F5F5F4FCC
:105590000E941C26BC01892BE1F19091E800977FC5
:1055A0009093E80089819A810E944F278091E800BA
:1055B0008B778093E8002DC0803859F58091E80002
:1055C000877F8093E800809133028093F10080917F
:1055D000E8008E7773CF81111CC090913A0292300F
:1055E000C0F48091E800877F8093E80090933302B5
:1055F0000E94E52780913302811106C08091E3006B
:1056000087FD02C081E001C084E0809337020E94E0
:1056100005258091E80083FF0AC08091E800877F1C
:105620008093E8008091EB0080628093EB00AA9663
:105630000FB6F894DEBF0FBECDBFDF91CF911F91A3
:105640000895CF93809137028823A1F0C091E9009B
:10565000CF709091EC00892F817090FD80E8C82B6D
:105660001092E9008091E80083FD0E94C729CF7065
:10567000C093E900CF910895DB018F939F930E941F
:10568000A32BBF91AF91A29F800D911DA39F900D61
:10569000B29F900D11240895991B79E004C0991FC1
:1056A000961708F0961B881F7A95C9F7809508957C
:1056B000AA1BBB1B51E107C0AA1FBB1FA617B70738
:1056C00010F0A61BB70B881F991F5A95A9F7809554
:1056D0009095BC01CD010895A1E21A2EAA1BBB1B17
:1056E000FD010DC0AA1FBB1FEE1FFF1FA217B307AE
:1056F000E407F50720F0A21BB30BE40BF50B661FC4
:10570000771F881F991F1A9469F760957095809587
:1057100090959B01AC01BD01CF010895EE0FFF1FD5
:105720000590F491E02D0994A29FB001B39FC001B0
:10573000A39F700D811D1124911DB29F700D811DBD
:105740001124911D08950E94942BA59F900DB49F44
:10575000900DA49F800D911D11240895F999FECFFD
:1057600092BD81BDF89A992780B50895A8E1B0E06F
:1057700042E050E00C94E22B262FF999FECF92BD27
:1057800081BDF89A019700B4021639F01FBA20BD06
:105790000FB6F894FA9AF99A0FBE08950396272F38
:1057A0000E94BD2B0E94BC2B252F0E94BD2B242FB5
:1057B0000C94BD2B0196272F0E94BD2B0C94BC2B63
:1057C000DC01CB01FC01F999FECF06C0F2BDE1BDC1
:1057D000F89A319600B40D9241505040B8F70895B0
:0457E000F894FFCF6B
:1057E400100292236A2495233424F92301C6F0F18C
:1057F400F4F5F6F735366694969734323392913051
:10580400316793954036226E0A380A160ABB09D4CA
:0458140009ED090091
:00000001FF
